:04000000FEEF7FF0A0
:10150000004E44000000003E4C00000A4A0000006B
:1015100000000000000000000000000000000000CB
:10152000000000000000000000F24AD64ABA4A005B
:10153000003F065B4F666D7D077F6F8088C040254A
:101540002E31662C252E31662C252E31660A00257B
:0D1550002E316600696E66006E616E00004F
:10155E00000E05019E6F78C5A1F579C5A2F57AC575
:10156E00A3F57BC5A4F5A4BFC1EF0AF0BFEF0AF047
:10157E00D5EF0AF0010E9E6FA1C501F5A2C502F5C9
:10158E00A3C503F5A4C504F59DEC24F001C5A1F592
:10159E0002C5A2F503C5A3F504C5A4F5000E050109
:1015AE00A06F000E9F6F12C68EF513C68FF59E515B
:1015BE00D8B4E4EF0AF0E6EF0AF0FAEF0AF09E5123
:1015CE00D8A4ECEF0AF0EEEF0AF0F4EF0AF0000EFA
:1015DE00846F2B0E836FF8EF0AF0000E846F2D0EC2
:1015EE00836F83C59EF5A1C501F5A2C502F5A3C5FE
:1015FE0003F5A4C504F53BEC20F001040210D8A4B9
:10160E000BEF0BF00DEF0BF03EEF0BF005019E51C3
:10161E00D8B414EF0BF016EF0BF01FEF0BF09EC5C6
:10162E002EF68E07D8A08F07000EA06F010E9F6FAB
:10163E002E0E9F25016E060EA021026E540E036E15
:10164E007FEC24F00501FD0E8E27FF0E8F2376C54D
:10165E0013F577C514F52E0E156E060E166E8EC585
:10166E0017F58FC518F566EC22F0A8EF0FF0A1C59F
:10167E0001F5A2C502F5A3C503F5A4C504F53BEC1F
:10168E0020F001500210D8A44FEF0BF051EF0BF0E9
:10169E006FEF0BF005019E51D8B458EF0BF05AEFD7
:1016AE000BF063EF0BF09EC52EF68E07D8A08F07BA
:1016BE00000EA06F010E9F6F2E0E9F25016E060E5F
:1016CE00A021026E580E036E7FEC24F029EF0BF072
:1016DE00000E0501A56F000EA66F800EA76F3F0EC0
:1016EE00A86F000E8D6F000E8C6FA1C501F5A2C5FF
:1016FE0002F5A3C503F5A4C504F5000E056E000E94
:10170E00066E000E076E000E086E80EC21F0D8B04B
:10171E0093EF0BF095EF0BF075EF0CF0A2EF0BF0D3
:10172E0090C5A5F591C5A6F592C5A7F593C5A8F5E3
:10173E0005018C4B8D2BA5C51AF5A6C51BF5A7C5A6
:10174E001CF5A8C51DF5000E1E6E000E1F6E200E98
:10175E00206E410E216E09EC12F01AC590F51BC5D4
:10176E0091F51CC592F51DC593F505019051A15D2E
:10177E00016E9151A259026E9251A359036E93516B
:10178E00A459046E99EC23F004BED9EF0BF004506B
:10179E000310021009E1020E015CD8A0D9EF0BF084
:1017AE00DBEF0BF097EF0BF090C56AF591C56BF57B
:1017BE0092C56CF593C56DF5A1C56EF5A2C56FF515
:1017CE00A3C570F5A4C571F535EC1FF00501D8A0C1
:1017DE00F3EF0BF0F5EF0BF097EF0BF0A551A15DCA
:1017EE00016EA651A259026EA751A359036EA851BC
:1017FE00A459046E99EC23F004BE13EF0CF00450C0
:10180E000310021007E1020E015CD8B011EF0CF0CC
:10181E0013EF0CF05BEF0CF0A5C5A1F5A6C5A2F574
:10182E00A7C5A3F5A8C5A4F575EF0CF0A5C501F5E0
:10183E00A6C502F5A7C503F5A8C504F5000E056EED
:10184E00000E066E200E076E410E086E1EEC14F092
:10185E0001C5A5F502C5A6F503C5A7F504C5A8F5EE
:10186E0005018C07D8A08D07A551A15D016EA6516B
:10187E00A259026EA751A359036EA851A459046E22
:10188E0099EC23F004BE59EF0CF004500310021033
:10189E0007E1020E015CD8B057EF0CF059EF0CF0D7
:1018AE005BEF0CF013EF0CF0A1C56AF5A2C56BF55A
:1018BE00A3C56CF5A4C56DF5A5C56EF5A6C56FF5EA
:1018CE00A7C570F5A8C571F535EC1FF00501D8A0B8
:1018DE0073EF0CF075EF0CF01DEF0CF07CC586F578
:1018EE0086C587F5060115BF7FEF0CF081EF0CF072
:1018FE0087EF0CF014C67FF515C680F58CEF0CF053
:10190E00000E0501806F060E7F6F7FC58AF580C5BC
:10191E008BF505018A4B8B2B660E8719D8A49AEF8F
:10192E000CF09CEF0CF0BCEF0CF08DBFA3EF0CF0A5
:10193E00A1EF0CF0AFEF0CF0000EA56F000EA66F2E
:10194E00800EA76F3F0EA86F000E8D6F000E8C6F6E
:10195E00670E8619D8B4B6EF0CF0B8EF0CF0BCEFEA
:10196E000CF08C518A278D518B23000E956F000E33
:10197E00946FA1C596F5A2C597F5A3C598F5A4C514
:10198E0099F5A5C590F5A6C591F5A7C592F5A8C57B
:10199E0093F54DEF0DF096C501F597C502F598C577
:1019AE0003F599C504F5A5C505F5A6C506F5A7C5A4
:1019BE0007F5A8C508F51EEC14F001C51AF502C509
:1019CE001BF503C51CF504C51DF5B6EC1BF01AC5B9
:1019DE009AF51BC59BF51CC59CF51DC59DF59AC5B5
:1019EE004BF59BC54CF59CC54DF59DC54EF5B8EC1C
:1019FE001FF04BC588F54CC589F596C543F597C5BF
:101A0E0044F598C545F599C546F59AC51EF59BC58D
:101A1E001FF59CC520F59DC521F5A5C51AF5A6C5D2
:101A2E001BF5A7C51CF5A8C51DF509EC12F01AC5C6
:101A3E0047F51BC548F51CC549F51DC54AF53AECD9
:101A4E0024F043C596F544C597F545C598F546C5AA
:101A5E0099F5A5C501F5A6C502F5A7C503F5A8C557
:101A6E0004F5000E056E000E066E200E076E410E7A
:101A7E00086E1EEC14F001C5A5F502C5A6F503C54A
:101A8E00A7F504C5A8F50501944B952B8A51945DD5
:101A9E009551800A5D6E8B51800A5D58D8A05AEF21
:101AAE000DF05CEF0DF0D2EF0CF0A5C51AF5A6C542
:101ABE001BF5A7C51CF5A8C51DF5000E1E6E000E64
:101ACE001F6EA00E206E400E216E09EC12F01AC58C
:101ADE009AF51BC59BF51CC59CF51DC59DF596C5B8
:101AEE006AF597C56BF598C56CF599C56DF59AC5F0
:101AFE006EF59BC56FF59CC570F59DC571F535EC02
:101B0E001FF00501D8B08EEF0DF090EF0DF09AEFAB
:101B1E000DF0000E9A6F000E9B6F000E9C6F000E64
:101B2E009D6FC3EF0DF096C501F597C502F598C5EB
:101B3E0003F599C504F59AC505F59BC506F59CC533
:101B4E0007F59DC508F580EC21F0D8A0B1EF0DF09A
:101B5E00B3EF0DF0C3EF0DF0050188B1B9EF0DF045
:101B6E00BBEF0DF0C3EF0DF0000E9A6F000E9B6FE2
:101B7E00000E9C6F000E9D6FA1C533F5A2C534F506
:101B8E00A3C535F5A4C536F59AC537F59BC538F509
:101B9E009CC539F59DC53AF5A9EC0FF033C596F500
:101BAE0034C597F535C598F536C599F596C56AF5D8
:101BBE0097C56BF598C56CF599C56DF5000E1E6E43
:101BCE00000E1F6E200E206E410E216E90C51AF56E
:101BDE0091C51BF592C51CF593C51DF509EC12F0C8
:101BEE001AC56EF51BC56FF51CC570F51DC571F5D3
:101BFE0035EC1FF00501D8A007EF0EF009EF0EF03F
:101C0E0031EF0EF08C4B8D2B90C51AF591C51BF54F
:101C1E0092C51CF593C51DF5000E1E6E000E1F6EAF
:101C2E00200E206E410E216E09EC12F01AC590F5B1
:101C3E001BC591F51CC592F51DC593F5660E0501E4
:101C4E008719D8A42DEF0EF02FEF0EF031EF0EF016
:101C5E008A4B8B2B90C5A5F591C5A6F592C5A7F518
:101C6E0093C5A8F58CC57DF58DC57EF5000E856FE7
:101C7E00000E826F000E816F000E956F000E946F36
:101C8E002EEF0FF096C501F597C502F598C503F531
:101C9E0099C504F5A5C505F5A6C506F5A7C507F5AD
:101CAE00A8C508F51EEC14F001C51AF502C51BF502
:101CBE0003C51CF504C51DF5B6EC1BF01AC59AF547
:101CCE001BC59BF51CC59CF51DC59DF59AC54BF511
:101CDE009BC54CF59CC54DF59DC54EF5B8EC1FF05A
:101CEE004CBE85EF0EF04C5007E10A0E4B5CD8B09F
:101CFE0083EF0EF085EF0EF095EF0EF09AC54BF5D3
:101D0E009BC54CF59CC54DF59DC54EF5B8EC1FF029
:101D1E004BC588F54CC589F59AEF0EF0000E0501FE
:101D2E00896F090E886F05018551D8A4A1EF0EF0B9
:101D3E00A3EF0EF0CBEF0EF07EBFAAEF0EF0A8EFE2
:101D4E000EF0CBEF0EF02E0E9F25D96E060EA021B3
:101D5E00DA6E2E0EDF6E9F4BA02B8E07D8A08F074C
:101D6E00010E856FCBEF0EF02E0E9F25D96E060E4F
:101D7E00A021DA6E300EDF6E9F4BA02B8E07D8A0FF
:101D8E008F078107D8A0820781518211D8A4D2EF84
:101D9E000EF0D4EF0EF0BBEF0EF02E0E9F25D96E87
:101DAE00060EA021DA6E8851300FDF6E9F4BA02BEE
:101DBE008E07D8A08F0796C543F597C544F598C5ED
:101DCE0045F599C546F59AC51EF59BC51FF59CC5EB
:101DDE0020F59DC521F5A5C51AF5A6C51BF5A7C508
:101DEE001CF5A8C51DF509EC12F01AC547F51BC563
:101DFE0048F51CC549F51DC54AF53AEC24F043C516
:101E0E0096F544C597F545C598F546C599F5A5C50A
:101E1E0001F5A6C502F5A7C503F5A8C504F5000E84
:101E2E00056E000E066E200E076E410E086E1EEC3D
:101E3E0014F001C5A5F502C5A6F503C5A7F504C5A1
:101E4E00A8F505017D07D8A07E07944B952B8A51E6
:101E5E00945D9551800A5D6E8B51800A5D58D8B0A5
:101E6E003BEF0FF03DEF0FF04BEF0FF0A0BF49EF40
:101E7E000FF0A05109E14B0E9F5DD8A049EF0FF076
:101E8E004BEF0FF049EF0EF0000E956F4F0E946F63
:101E9E002E0E9425D96E060E9521DA6EDF6A2E0E61
:101EAE005D6E060E5E6E9F515D5EA0515E5A945140
:101EBE005D24016E95515E20026E2E0E036E060E8F
:101ECE00046E9FC505F5A0C506F5ECEC23F00501E3
:101EDE009F51945D9F6FA0519559A06F9E51D8A4AC
:101EEE007BEF0FF07EEF0FF0010E7FEF0FF0000E85
:101EFE00946F956B9E51D8B487EF0FF089EF0FF06A
:101F0E0094EF0FF09F07D8A0A0072E0E9F25D96E35
:101F1E00060EA021DA6E9EC5DFF494518E5F9551A8
:101F2E008F5B76C513F577C514F52E0E9F25156EAE
:101F3E00060EA021166E8EC517F58FC518F566EC28
:101F4E0022F012003650800B3F6E36503624416E12
:101F5E0035AEB4EF0FF0B6EF0FF0B7EF0FF04180E4
:101F6E004150D8B4BDEF0FF0BFEF0FF0D4EF0FF02C
:101F7E004128D8A4C5EF0FF0C7EF0FF0CFEF0FF049
:101F8E00000E336E000E346E000E356E000E366E81
:101F9E00358E000E366EDCEF0FF0000E336E000E37
:101FAE00346E000E356E000E366E3A50800B406E5B
:101FBE003F504018D8B4E6EF0FF0E8EF0FF0E9EF1E
:101FCE000FF03F8C3A503A24406E39AEF1EF0FF0DD
:101FDE00F3EF0FF0F4EF0FF040804050D8B4FAEF6B
:101FEE000FF0FCEF0FF011EF10F04028D8A402EF25
:101FFE0010F004EF10F00CEF10F0000E376E000E24
:10200E00386E000E396E000E3A6E398E000E3A6E34
:10201E0019EF10F0000E376E000E386E000E396E8E
:10202E00000E3A6E4150405CD8B020EF10F022EF17
:10203E0010F049EF10F03FAC27EF10F029EF10F041
:10204E002BEF10F0800E3F1A41C542F540C541F509
:10205E0042C540F533C542F537C533F542C537F5B0
:10206E0034C542F538C534F542C538F535C542F5A7
:10207E0039C535F542C539F536C542F53AC536F599
:10208E0042C53AF5000E426E415040C53BF53C6AE2
:10209E003B5E000E3C5A3CBE5EEF10F03C5009E138
:1020AE001A0E3B5CD8A05EEF10F060EF10F097EFC9
:1020BE0010F03350341035103610D8A469EF10F0EC
:1020CE006CEF10F0010E6DEF10F0000E426E000E70
:1020DE00336E000E346E000E356E000E366E40C539
:1020EE0041F5A0EF10F042A07FEF10F081EF10F05D
:1020FE0087EF10F0D89042300109426E89EF10F050
:10210E00D890423233A08EEF10F090EF10F091EF96
:10211E0010F0428E36343632353234323332412A72
:10212E004050415CD8A09EEF10F0A0EF10F07AEF77
:10213E0010F03FBCA5EF10F0A7EF10F0E7EF10F096
:10214E004150D8A4ADEF10F0AFEF10F0B9EF10F092
:10215E00000E336E000E346E000E356E000E366EAF
:10216E0008EF12F0375033263850342239503522CA
:10217E003A50362236A0C6EF10F0C8EF10F074EFCA
:10218E0011F042A0CDEF10F0CFEF10F0D5EF10F020
:10219E00D89042300109426ED7EF10F0D8904232FB
:1021AE0033A0DCEF10F0DEEF10F0DFEF10F0428E18
:1021BE0036343632353234323332412A74EF11F03E
:1021CE003750335C38503458395035583650800AB1
:1021DE003B6E3A50800A3B58D8B0F8EF10F0FAEF49
:1021EE0010F025EF11F03350375C3B6E34503858F9
:1021FE003C6E355039583D6E36503A583E6EFF0E95
:10220E003B24336EFF0E3C20346EFF0E3D20356EA8
:10221E00FF0E3E20366E800E3F1A426C4250D8A4FE
:10222E001BEF11F01DEF11F02DEF11F0010E332603
:10223E00000E3422352236222DEF11F03750335E48
:10224E003850345A3950355A3A50365A3350341071
:10225E0035103610D8A436EF11F038EF11F06DEFBF
:10226E0011F04250D8A43EEF11F040EF11F06DEF97
:10227E0011F0000E336E000E346E000E356E000E31
:10228E00366E08EF12F0D890333634363536363691
:10229E0042AE54EF11F056EF11F057EF11F03380BC
:1022AE0042A05CEF11F05EEF11F062EF11F0D880FA
:1022BE00423664EF11F0D89042364150D8B46AEFEE
:1022CE0011F06CEF11F06DEF11F0410635AE72EFBB
:1022DE0011F074EF11F04AEF11F0000E406E42AEA5
:1022EE007BEF11F07DEF11F095EF11F042C53BF54C
:1022FE007F0E3B16D8B486EF11F088EF11F08CEFFD
:10230E0011F0010E406E95EF11F033A091EF11F028
:10231E0093EF11F095EF11F088EF11F04050D8B413
:10232E009BEF11F09DEF11F0C8EF11F0010E332667
:10233E00000E34223522362236A0A8EF11F0AAEF75
:10234E0011F0C8EF11F033C53BF534C53CF535C57A
:10235E003DF536C53EF53E343E323D323C323B32E3
:10236E003BC533F53CC534F53DC535F53EC536F5B3
:10237E004128D8B4C5EF11F0C7EF11F0C8EF11F036
:10238E00412A4128D8B4CEEF11F0D0EF11F0D8EF9A
:10239E0011F04150D8A4D6EF11F0D8EF11F0EAEFBA
:1023AE0011F0000E336E000E346E000E356E000E00
:1023BE00366E4150D8A4E6EF11F0E8EF11F0EAEFD7
:1023CE0011F0000E3F6E41A0EFEF11F0F1EF11F0A2
:1023DE00F4EF11F0358EF5EF11F0359ED8904130B7
:1023EE00366E3FAEFDEF11F0FFEF11F000EF12F081
:1023FE00368E33C533F534C534F535C535F536C5AA
:10240E0036F512001D50800B266E1D501D242C6EAD
:10241E001CAE14EF12F016EF12F017EF12F02C8024
:10242E002C50D8B41DEF12F01FEF12F032EF12F055
:10243E002C28D8A425EF12F027EF12F02FEF12F070
:10244E00000E1A6E000E1B6E000E1C6E000E1D6E20
:10245E001C8E3AEF12F0000E1A6E000E1B6E000E5E
:10246E001C6E000E1D6E2150800B261A2150212449
:10247E002B6E20AE45EF12F047EF12F048EF12F040
:10248E002B802B50D8B44EEF12F050EF12F063EFBA
:10249E0012F02B28D8A456EF12F058EF12F060EF7E
:1024AE0012F0000E1E6E000E1F6E000E206E000E3D
:1024BE00216E208E6BEF12F0000E1E6E000E1F6E40
:1024CE00000E206E000E216E2B50D8B471EF12F05C
:1024DE0073EF12F07BEF12F02C50D8A479EF12F0BC
:1024EE007BEF12F085EF12F0000E1A6E000E1B6ECF
:1024FE00000E1C6E000E1D6E1DEF14F020501A0201
:10250E00F3C431F5F4C432F53150276E286A296AC6
:10251E002A6A32502D6E2E6A2F6A306A1F501B02A5
:10252E00F3C431F5F4C432F531502726000E2822BB
:10253E0029222A2232502D26000E2E222F22302220
:10254E001E501C02F3C431F5F4C432F53150272667
:10255E00000E282229222A2232502D26000E2E224B
:10256E002F22302229C52AF528C529F527C528F599
:10257E00276A1E501B02F3C431F5F4C432F53150F4
:10258E00272632502822000E2922000E2A221F5002
:10259E001A02F3C431F5F4C432F531502726325005
:1025AE002822000E2922000E2A2229C52AF528C526
:1025BE0029F527C528F5276A1E501A02F3C431F5EE
:1025CE00F4C432F53150272632502822000E29222B
:1025DE00000E2A2220501B02F3C431F5F4C432F54A
:1025EE0031502D2632502E22000E2F22000E302278
:1025FE001F501C02F3C431F5F4C432F531502D26B0
:10260E0032502E22000E2F22000E302220501C029D
:10261E00F3C431F5F4C432F53150226E3250236ECC
:10262E00246A256A24C525F523C524F522C523F57C
:10263E00226A22502D2623502E2224502F2225503E
:10264E00302227C522F528C523F529C524F52AC52C
:10265E0025F5190E38EF13F0D89025322432233297
:10266E002232E82E33EF13F022502D2623502E2245
:10267E0024502F222550302229C52AF528C529F5A8
:10268E0027C528F5276A2B502CC522F5236A22264A
:10269E00000E2322820E2224316EFF0E2320326E74
:1026AE006EEF13F0D8902D362E362F3630362AAEEA
:1026BE0063EF13F065EF13F066EF13F02D80D890F3
:1026CE002736283629362A363106D8A032062FAEBE
:1026DE0073EF13F075EF13F059EF13F0000E2B6E2E
:1026EE002AAE7CEF13F07EEF13F0A2EF13F0FF0E85
:1026FE002714226EFF0E2814236EFF0E2914246E4B
:10270E007F0E2A14256E2250231024102510D8B4C3
:10271E0093EF13F095EF13F099EF13F0010E2B6E6C
:10272E00A2EF13F02DA09EEF13F0A0EF13F0A2EF87
:10273E0013F095EF13F02B50D8B4A8EF13F0AAEFC7
:10274E0013F0CEEF13F0010E2D26000E2E222F22A7
:10275E00302230A0B5EF13F0B7EF13F0CEEF13F039
:10276E002DC522F52EC523F52FC524F530C525F52B
:10277E002534253224322332223222C52DF523C5AB
:10278E002EF524C52FF525C530F5314A322A32BE35
:10279E00D9EF13F0325008E13128D8A0D9EF13F059
:1027AE00DBEF13F0E5EF13F0000E2D6E000E2E6E24
:1027BE00800E2F6E7F0E306E13EF14F032BEF2EFDE
:1027CE0013F0325006E13104D8B0F0EF13F0F2EF0F
:1027DE0013F0FEEF13F0000E2D6E000E2E6E000E97
:1027EE002F6E000E306E000E266E13EF14F031C5F4
:1027FE002CF5FF0E2D16FF0E2E167F0E2F16000E29
:10280E0030162CA00DEF14F00FEF14F010EF14F0A3
:10281E002F8ED8902C30306E265030122DC51AF5D2
:10282E002EC51BF52FC51CF530C51DF51200045025
:10283E00800B116E04500424186E03AE29EF14F0B1
:10284E002BEF14F02CEF14F018801850D8B432EF90
:10285E0014F034EF14F049EF14F01828D8A43AEF1E
:10286E0014F03CEF14F044EF14F0000E016E000E65
:10287E00026E000E036E000E046E038E000E046ECA
:10288E0051EF14F0000E016E000E026E000E036E7C
:10289E00000E046E0850800B111A08500824196E91
:1028AE0007AE5CEF14F05EEF14F05FEF14F01980DA
:1028BE001950D8B465EF14F067EF14F07CEF14F0F4
:1028CE001928D8A46DEF14F06FEF14F077EF14F011
:1028DE00000E056E000E066E000E076E000E086EE0
:1028EE00078E000E086E84EF14F0000E056E000EBB
:1028FE00066E000E076E000E086E055006100710CD
:10290E000810D8A48DEF14F08FEF14F0A7EF14F089
:10291E00000E016E000E026E000E036E000E046EAF
:10292E00800E03127F0E04121150041201C501F520
:10293E0002C502F503C503F504C504F5EAEF15F06B
:10294E001850D8A4ADEF14F0AFEF14F0B9EF14F0A7
:10295E00000E016E000E026E000E036E000E046E6F
:10296E00EAEF15F0195018C509F50A6A095E000E4E
:10297E000A5A7F0E0924126E000E0A20136E01C52C
:10298E000DF502C50EF503C50FF504C510F5000EC5
:10299E00016E000E026E000E036E000E046E000E2F
:1029AE00146E000E156E000E166E000E176E000ED3
:1029BE00196E1AEF15F01950D8B4E8EF14F0EAEFCB
:1029CE0014F001EF15F0D8900D360E360F36103686
:1029DE00D890013602360336043617AEF9EF14F0EE
:1029EE00FBEF14F0FCEF14F00180D890143615367E
:1029FE001636173605500D5C06500E5807500F58F8
:102A0E0008501058D8A00EEF15F010EF15F019EF72
:102A1E0015F0178C05500D5E06500E5A07500F5AC2
:102A2E000850105A192A190E196420EF15F022EFCA
:102A3E0015F0E2EF14F00D500E100F101010D8B468
:102A4E002BEF15F02DEF15F045EF15F0148045EF37
:102A5E0015F0D890013602360336043617AE3AEF2B
:102A6E0015F03CEF15F03DEF15F00180D8901436BF
:102A7E001536163617361206D8A0130603AE4AEFD1
:102A8E0015F04CEF15F030EF15F0000E196E17AE75
:102A9E0053EF15F055EF15F079EF15F0FF0E1414F6
:102AAE00096EFF0E15140A6EFF0E16140B6E7F0EB6
:102ABE0017140C6E09500A100B100C10D8B46AEFD4
:102ACE0015F06CEF15F070EF15F0010E196E79EF31
:102ADE0015F001A075EF15F077EF15F079EF15F001
:102AEE006CEF15F01950D8B47FEF15F081EF15F09B
:102AFE00A5EF15F0010E0126000E0222032204227C
:102B0E0004A08CEF15F08EEF15F0A5EF15F001C5B2
:102B1E0009F502C50AF503C50BF504C50CF50C3411
:102B2E000C320B320A32093209C501F50AC502F51B
:102B3E000BC503F50CC504F5124A132A13BEB0EFEC
:102B4E0015F0135008E11228D8A0B0EF15F0B2EF2F
:102B5E0015F0BDEF15F0000E136E1268000E016E2B
:102B6E00000E026E000E036E000E046E13BECAEF50
:102B7E0015F0135006E11204D8B0C8EF15F0CAEFE5
:102B8E0015F0D8EF15F0000E136E000E126E000E3B
:102B9E00016E000E026E000E036E000E046E000E2D
:102BAE00116E12C518F518A0DFEF15F0E1EF15F054
:102BBE00E4EF15F0038EE5EF15F0039ED890183074
:102BCE00046E9BEF14F012004EEC25F009EC23F08E
:102BDE00D3EC22F09DEC22F027EC22F0000E050142
:102BEE00D16F000ED26FB40ED36F420ED46F000EA3
:102BFE00D56F000ED66FB40ED76F420ED86F000E83
:102C0E00D96F000EDA6FB40EDB6F420EDC6F6EEC16
:102C1E0023F095EC25F0EDEC24F0ADEC25F0000E54
:102C2E000501D16F000ED26FEA0ED36F420ED46F34
:102C3E00000ED56F000ED66FF00ED76F420ED86F06
:102C4E00000ED96F000EDA6FF00EDB6F410EDC6FE7
:102C5E006EEC23F0000E0501D16F000ED26FEA0E5E
:102C6E00D36F420ED46F000ED56F000ED66F020ECC
:102C7E00D76F430ED86F000ED96F000EDA6FF00EBD
:102C8E00DB6F410EDC6F6EEC23F0000E0501D16F91
:102C9E00000ED26FEA0ED36F420ED46F000ED56FB8
:102CAE00000ED66F030ED76F430ED86F000ED96F7E
:102CBE00000EDA6F140EDB6F420EDC6F6EEC23F03B
:102CCE00000E0501D16F000ED26FEA0ED36F420EC9
:102CDE00D46F000ED56F000ED66F040ED76F430E55
:102CEE00D86F000ED96F000EDA6F140EDB6F420E26
:102CFE00DC6F6EEC23F0A1EC25F0000E0501D16F18
:102D0E00000ED26FEA0ED36F420ED46F000ED56F47
:102D1E00000ED66F020ED76F430ED86F000ED96F0E
:102D2E00000EDA6F1C0EDB6F420EDC6F6EEC23F0C2
:102D3E00000E0501D16F000ED26FEA0ED36F420E58
:102D4E00D46F000ED56F000ED66F020ED76F430EE6
:102D5E00D86F000ED96F000EDA6F480EDB6F420E81
:102D6E00DC6F6EEC23F0000E0501D16F000ED26FFA
:102D7E00920ED36F420ED46F000ED56F000ED66F2B
:102D8E00B40ED76F420ED86F000ED96F000EDA6FE9
:102D9E00020EDB6F430EDC6F6EEC23F0000E0501AE
:102DAE00D16F000ED26F920ED36F420ED46F000E03
:102DBE00D56F000ED66F070ED76F430ED86F000E6D
:102DCE00D96F000EDA6F020EDB6F430EDC6F6EEC06
:102DDE0023F095EC25F0E00E0501BC6F050EBD6FDE
:102DEE004F0EBE6FF7C5BFF5F8C5C0F5F9C5C1F5F5
:102DFE00FAC5C2F514EC24F0E50E0501BC6F050E04
:102E0E00BD6F4F0EBE6FF3C5BFF5F4C5C0F5F5C56A
:102E1E00C1F5F6C5C2F514EC24F0EA0E0501BC6F3F
:102E2E00050EBD6F4F0EBE6FEFC5BFF5F0C5C0F5F9
:102E3E00F1C5C1F5F2C5C2F514EC24F0BEB82AEF07
:102E4E0017F02DEF17F0010E2EEF17F0000EFF0A00
:102E5E000501DF6FDF3BBE50DF19EF0BDF19BE6ED2
:102E6E00BEBA3CEF17F03FEF17F0010E40EF17F030
:102E7E00000EFF0ADF6FDF3BDF47BE50DF19DF0BAF
:102E8E00DF19BE6EF5EF15F0FEEF7FF00501CEBF38
:102E9E0055EF17F053EF17F05FEF17F0000ECB6FF3
:102EAE00000ECC6F000ECD6F000ECE6F22EF18F01D
:102EBE00000E6A6F000E6B6F340E6C6F430E6D6FEB
:102ECE00CBC56EF5CCC56FF5CDC570F5CEC571F51C
:102EDE0035EC1FF00501D8B077EF17F079EF17F04A
:102EEE0022EF18F0000ECB6F000ECC6F340ECD6FAC
:102EFE00430ECE6F22EF18F0EFC56AF5F0C56BF5F5
:102F0E00F1C56CF5F2C56DF5CBC56EF5CCC56FF59B
:102F1E00CDC570F5CEC571F535EC1FF00501D8B0F5
:102F2E009BEF17F09DEF17F0B9EF17F0EFC533F5E4
:102F3E00F0C534F5F1C535F5F2C536F5000E376E30
:102F4E00000E386E800E396E3F0E3A6EA9EC0FF001
:102F5E0033C5EFF534C5F0F535C5F1F536C5F2F5E7
:102F6E00EDEF17F0CBC56AF5CCC56BF5CDC56CF59D
:102F7E00CEC56DF5EFC56EF5F0C56FF5F1C570F503
:102F8E00F2C571F535EC1FF00501D8B0D1EF17F091
:102F9E00D3EF17F0EDEF17F0EFC543F5F0C544F59D
:102FAE00F1C545F5F2C546F5000E476E000E486EAA
:102FBE00800E496E3F0E4A6E3AEC24F043C5EFF593
:102FCE0044C5F0F545C5F1F546C5F2F5EFC555F525
:102FDE00F0C556F5F1C557F5F2C558F5020E9CEC45
:102FEE001EF03F0E0501BC6FF7C5BDF5F8C5BEF569
:102FFE00F9C5BFF5FAC5C0F5F3C5C1F5F4C5C2F5FF
:10300E00F5C5C3F5F6C5C4F5EFC5C5F5F0C5C6F5EE
:10301E00F1C5C7F5F2C5C8F52DEC25F0020E050178
:10302E00D06FA00ECF6F920EE82EFED7CF2FFCD70B
:10303E00D02FFAD70000CD0E05016A6FCC0E6B6F44
:10304E00CC0E6C6F3D0E6D6FCBC547F5CCC548F5FC
:10305E00CDC549F5CEC54AF5EFC543F5F0C544F5E6
:10306E00F1C545F5F2C546F53AEC24F043C54BF5EE
:10307E0044C54CF545C54DF546C54EF5B8EC1FF0AB
:10308E004BC555F54CC556F5B9EC24F055C559F55B
:10309E0056C55AF5000E5ABEFF0E5B6E5C6E010EE3
:1030AE00C0EC1DF059C56EF55AC56FF55BC570F5D0
:1030BE005CC571F535EC1FF00501D8A069EF18F06D
:1030CE006BEF18F083EF17F012000501CEBF74EF0F
:1030DE0018F072EF18F07EEF18F0000ECB6F000EA6
:1030EE00CC6F000ECD6F000ECE6F41EF19F0000EBB
:1030FE006A6F000E6B6F340E6C6F430E6D6FCBC527
:10310E006EF5CCC56FF5CDC570F5CEC571F535EC48
:10311E001FF00501D8B096EF18F098EF18F041EFB8
:10312E0019F0000ECB6F000ECC6F340ECD6F430E28
:10313E00CE6F41EF19F0F3C56AF5F4C56BF5F5C521
:10314E006CF5F6C56DF5CBC56EF5CCC56FF5CDC579
:10315E0070F5CEC571F535EC1FF00501D8B0BAEF9C
:10316E0018F0BCEF18F0D8EF18F0F3C533F5F4C52E
:10317E0034F5F5C535F5F6C536F5000E376E000E8D
:10318E00386E800E396E3F0E3A6EA9EC0FF033C5D5
:10319E00F3F534C5F4F535C5F5F536C5F6F50CEF92
:1031AE0019F0CBC56AF5CCC56BF5CDC56CF5CEC5A2
:1031BE006DF5F3C56EF5F4C56FF5F5C570F5F6C58D
:1031CE0071F535EC1FF00501D8B0F0EF18F0F2EF05
:1031DE0018F00CEF19F0F3C543F5F4C544F5F5C539
:1031EE0045F5F6C546F5000E476E000E486E800E8C
:1031FE00496E3F0E4A6E3AEC24F043C5F3F544C5D2
:10320E00F4F545C5F5F546C5F6F5F3C555F5F4C522
:10321E0056F5F5C557F5F6C558F5010E9CEC1EF0A2
:10322E003F0E0501BC6FF7C5BDF5F8C5BEF5F9C576
:10323E00BFF5FAC5C0F5F3C5C1F5F4C5C2F5F5C5C0
:10324E00C3F5F6C5C4F5EFC5C5F5F0C5C6F5F1C5B0
:10325E00C7F5F2C5C8F52DEC25F0020E0501D06FAD
:10326E00A00ECF6F920EE82EFED7CF2FFCD7D02F09
:10327E00FAD70000CD0E05016A6FCC0E6B6FCC0E27
:10328E006C6F3D0E6D6FCBC547F5CCC548F5CDC502
:10329E0049F5CEC54AF5F3C543F5F4C544F5F5C574
:1032AE0045F5F6C546F53AEC24F043C54BF544C555
:1032BE004CF545C54DF546C54EF5B8EC1FF04BC562
:1032CE0055F54CC556F5B9EC24F055C559F556C50E
:1032DE005AF5000E5ABEFF0E5B6E5C6E010EC0EC10
:1032EE001DF059C56EF55AC56FF55BC570F55CC519
:1032FE0071F535EC1FF00501D8A088EF19F08AEFB3
:10330E0019F0A2EF18F012000501CEBF93EF19F0DD
:10331E0091EF19F09DEF19F0000ECB6F000ECC6FF0
:10332E00000ECD6F000ECE6F60EF1AF0000E6A6FBA
:10333E00000E6B6F340E6C6F430E6D6FCBC56EF55A
:10334E00CCC56FF5CDC570F5CEC571F535EC1FF05A
:10335E000501D8B0B5EF19F0B7EF19F060EF1AF01C
:10336E00000ECB6F000ECC6F340ECD6F430ECE6FB2
:10337E0060EF1AF0F7C56AF5F8C56BF5F9C56CF58F
:10338E00FAC56DF5CBC56EF5CCC56FF5CDC570F52F
:10339E00CEC571F535EC1FF00501D8B0D9EF19F097
:1033AE00DBEF19F0F7EF19F0F7C533F5F8C534F583
:1033BE00F9C535F5FAC536F5000E376E000E386EC6
:1033CE00800E396E3F0E3A6EA9EC0FF033C5F7F54D
:1033DE0034C5F8F535C5F9F536C5FAF52BEF1AF003
:1033EE00CBC56AF5CCC56BF5CDC56CF5CEC56DF507
:1033FE00F7C56EF5F8C56FF5F9C570F5FAC571F537
:10340E0035EC1FF00501D8B00FEF1AF011EF1AF0DE
:10341E002BEF1AF0F7C543F5F8C544F5F9C545F598
:10342E00FAC546F5000E476E000E486E800E496EC8
:10343E003F0E4A6E3AEC24F043C5F7F544C5F8F555
:10344E0045C5F9F546C5FAF5F7C555F5F8C556F56E
:10345E00F9C557F5FAC558F5000E9CEC1EF03F0E57
:10346E000501BC6FF7C5BDF5F8C5BEF5F9C5BFF5CD
:10347E00FAC5C0F5F3C5C1F5F4C5C2F5F5C5C3F57A
:10348E00F6C5C4F5EFC5C5F5F0C5C6F5F1C5C7F56A
:10349E00F2C5C8F52DEC25F0020E0501D06FA00E79
:1034AE00CF6F920EE82EFED7CF2FFCD7D02FFAD7A4
:1034BE000000CD0E05016A6FCC0E6B6FCC0E6C6FDB
:1034CE003D0E6D6FCBC547F5CCC548F5CDC549F55D
:1034DE00CEC54AF5F7C543F5F8C544F5F9C545F52A
:1034EE00FAC546F53AEC24F043C54BF544C54CF508
:1034FE0045C54DF546C54EF5B8EC1FF04BC555F517
:10350E004CC556F5B9EC24F055C559F556C55AF5C6
:10351E00000E5ABEFF0E5B6E5C6E010EC0EC1DF00F
:10352E0059C56EF55AC56FF55BC570F55CC571F57D
:10353E0035EC1FF00501D8A0A7EF1AF0A9EF1AF08D
:10354E00C1EF19F01200ABC5D9F4ACC5DAF4DFC483
:10355E00F6F4150EF76EF86A0800F550250AD8A491
:10356E00BBEF1AF0BDEF1AF0A0EF1BF0ABC5D9F40C
:10357E00ACC5DAF4DF2A000E0601136F000E126FCF
:10358E0012C628F614691569ABC5D9F4ACC5DAF4C0
:10359E00DFC4F6F4150EF76EF86A0800F5502E0A21
:1035AE00D8A4DCEF1AF0DEEF1AF0F1EF1AF0ABC58B
:1035BE00D9F4ACC5DAF4DF2AABC507F5ACC508F50E
:1035CE00ADC509F5AEC50AF51FEC21F007C514F619
:1035DE0008C515F6ABC5D9F4ACC5DAF4DF50050154
:1035EE00B66FB6C5F6F4150EF76EF86A0800F5C498
:1035FE00B5F50DEF1BF0B62B1CEF1BF06C0EB56F77
:10360E001CEF1BF0000EB56F1CEF1BF0B5514C0AF2
:10361E00D8B402EF1BF02A0AD8B405EF1BF00A0A41
:10362E00D8B402EF1BF009EF1BF0B6C5F6F4150E79
:10363E00F76EF86A0800F550660AD8A429EF1BF059
:10364E002BEF1BF099EF1BF061EF1BF0ADC5D9F41A
:10365E00AEC5DAF4DFC4AFF5040EDE26DFC4B0F576
:10366E00000EDD22AFC5D9F4B0C5DAF4DEC4B1F573
:10367E00DEC4B2F5DEC4B3F5DEC4B4F56CEF1BF0F8
:10368E00ADC5D9F4AEC5DAF4DFC4AFF5040EDE264F
:10369E00DFC4B0F5000EDD22AFC5D9F4B0C5DAF443
:1036AE00DEC4B1F5DEC4B2F5DEC4B3F5DEC4B4F5E6
:1036BE006CEF1BF0B5514C0AD8B447EF1BF0200A43
:1036CE00D8B42DEF1BF06CEF1BF0B629ABC5D9F4B7
:1036DE00ACC5DAF4DF6E8CEF1BF0A9C576F5AAC582
:1036EE0077F5B1C578F5B2C579F5B3C57AF5B4C538
:1036FE007BF5B6C5F6F4150EF76EF86A0800F5C43C
:10370E007CF5AFEC0AF0B5EF1BF0B6C5F6F4150E6E
:10371E00F76EF86A0800F550660AD8B474EF1BF01D
:10372E0099EF1BF0ABC5D9F4ACC5DAF4DF2AB5EFCF
:10373E001BF0ABC5D9F4ACC5DAF4DFC4F6F4150E44
:10374E00F76EF86A0800F550036E046AA9C505F510
:10375E00AAC506F5BAEC20F099EF1BF0120006C6CA
:10376E002AF507C62BF508C62CF509C62DF51AC580
:10377E002AF51BC52BF51CC52CF51DC52DF5810E87
:10378E001E6EFF0E1F6E2AC520F52BC521F52CC50A
:10379E0022F52DC523F5180EDAEF1BF0D890233243
:1037AE00223221322032E82ED5EF1BF020501E247B
:1037BE00286E000E1F20296E29BEEFEF1BF0295038
:1037CE0009E1170E285CD8A0EFEF1BF0F1EF1BF00C
:1037DE00FBEF1BF01AC51AF51BC51BF51CC51CF516
:1037EE001DC51DF5BEEF1CF029BE00EF1CF002EF4B
:1037FE001CF072EF1CF028C51EF5FF0E1F6EFF0E9B
:10380E00206E7F0E216E000E226E1E6611EF1CF0D2
:10381E0019EF1CF022342232213220321F321E2E9A
:10382E000CEF1CF01FC524F520C525F521C526F586
:10383E0022C527F524502A141E6E25502B141F6EF8
:10384E0026502C14206E27502D14216E1E501F1042
:10385E0020102110D8A436EF1CF038EF1CF03AEFF0
:10386E001CF0F1EF1BF02AC51EF52BC51FF52CC55C
:10387E0020F52DC521F5200E4AEF1CF0D8902132EF
:10388E0020321F321E32E82E45EF1CF01E501F1044
:10389E0020102110D8B456EF1CF058EF1CF060EF3A
:1038AE001CF024502A2625502B2226502C2227503D
:1038BE002D22241C1E6E251C1F6E261C206E271CFE
:1038CE00216E1E502A161F502B1620502C162150DA
:1038DE002D16B6EF1CF02AC51EF52BC51FF52CC5EF
:1038EE0020F52DC521F5200E82EF1CF0D890213247
:1038FE0020321F321E32E82E7DEF1CF01E501F109C
:10390E0020102110D8A48EEF1CF090EF1CF09AEF2F
:10391E001CF0000E2A6E000E2B6E000E2C6E000E8A
:10392E002D6EB6EF1CF0D8902A341E6E2B341F6EFF
:10393E002C34206E2D34216E1E501F10201021109D
:10394E00D8B4ACEF1CF0AEEF1CF0B6EF1CF0000ECE
:10395E002A6E000E2B6E800E2C6EBF0E2D6E2AC59B
:10396E001AF52BC51BF52CC51CF52DC51DF5120022
:10397E00050179BFC7EF1CF0C5EF1CF0D1EF1CF0AD
:10398E00000E766F000E776F000E786F000E796F57
:10399E0076EF1DF0000E6A6F000E6B6FB40E6C6F3B
:1039AE00420E6D6F76C56EF577C56FF578C570F5FD
:1039BE0079C571F535EC1FF00501D8B0E9EF1CF0B3
:1039CE00EBEF1CF076EF1DF0000E766F000E776FAA
:1039DE00B40E786F420E796F76EF1DF00EC66AF553
:1039EE000FC66BF510C66CF511C66DF576C56EF586
:1039FE0077C56FF578C570F579C571F535EC1FF0A3
:103A0E000501D8B00DEF1DF00FEF1DF02BEF1DF0DF
:103A1E000EC633F50FC634F510C635F511C636F59C
:103A2E00000E376E000E386E800E396E3F0E3A6EF7
:103A3E00A9EC0FF033C50EF634C50FF635C510F6EA
:103A4E0036C511F65FEF1DF076C56AF577C56BF5D5
:103A5E0078C56CF579C56DF50EC66EF50FC66FF5AA
:103A6E0010C670F511C671F535EC1FF00501D8B012
:103A7E0043EF1DF045EF1DF05FEF1DF00EC643F551
:103A8E000FC644F510C645F511C646F5000E476E35
:103A9E00000E486E800E496E3F0E4A6E3AEC24F0D0
:103AAE0043C50EF644C50FF645C510F646C511F6CC
:103ABE000EC655F50FC656F510C657F511C658F574
:103ACE00030E9CEC1EF0020E5E6EA00E5D6E920E4C
:103ADE00E82EFED75D2EFCD75E2EFAD700D0CD0E87
:103AEE0005016A6FCC0E6B6FCC0E6C6F3D0E6D6F59
:103AFE0076C547F577C548F578C549F579C54AF5D0
:103B0E000EC643F50FC644F510C645F511C646F56B
:103B1E003AEC24F043C54BF544C54CF545C54DF57F
:103B2E0046C54EF5B8EC1FF04BC555F54CC556F5D0
:103B3E00B9EC24F055C559F556C55AF5000E5ABEC6
:103B4E00FF0E5B6E5C6E010EC0EC1DF059C56EF57E
:103B5E005AC56FF55BC570F55CC571F535EC1FF098
:103B6E000501D8A0BDEF1DF0BFEF1DF0F5EF1CF065
:103B7E0012000501646F05016451D8B4C9EF1DF040
:103B8E00CBEF1DF0EDEF1DF05CBED2EF1DF0D0EFD0
:103B9E001DF0EDEF1DF059C560F55AC561F55BC519
:103BAE0062F55CC563F5601F611F621F631F602BAA
:103BBE00000E61236223632360C566F561C567F558
:103BCE0062C568F563C569F5F5EF1DF059C566F573
:103BDE005AC567F55BC568F55CC569F559505A104D
:103BEE005B105C10D8A4FEEF1DF000EF1EF00AEF84
:103BFE001EF0000E596E000E5A6E000E5B6E000E19
:103C0E005C6E9BEF1EF0960E656F14EF1EF0652B2B
:103C1E00D8906933683367336633000E6615606F6C
:103C2E00000E6715616F000E6815626FFE0E691546
:103C3E00636F6051611162116311D8A429EF1EF0F8
:103C4E002BEF1EF00EEF1EF039EF1EF0652B010E5E
:103C5E006627000E672368236923D890693368337B
:103C6E0067336633000E6615606F000E6715616F61
:103C7E00000E6815626FFF0E6915636F605161115A
:103C8E0062116311D8A44EEF1EF050EF1EF02DEF0F
:103C9E001EF058EF1EF06507D89066376737683705
:103CAE00693768BF5DEF1EF05FEF1EF067EF1EF025
:103CBE00020E656165EF1EF067EF1EF052EF1EF00B
:103CCE0065B16CEF1EF06EEF1EF06FEF1EF0689F89
:103CDE00D890653365C560F5616B626B636B60C5CB
:103CEE0063F5626B616B606B6051661361516713B4
:103CFE0062516813635169136451D8B489EF1EF091
:103D0E008BEF1EF093EF1EF05CBE92EF1EF090EF65
:103D1E001EF093EF1EF0698F66C559F567C55AF50B
:103D2E0068C55BF569C55CF51200596E000E376EFD
:103D3E00000E386EBE0E396E440E3A6E000E1E6EBA
:103D4E00000E1F6EC80E206E450E216E000E056E03
:103D5E00000E066E340E076E430E086E55C501F545
:103D6E0056C502F557C503F558C504F51EEC14F0FB
:103D7E0001C51AF502C51BF503C51CF504C51DF5D5
:103D8E0009EC12F01AC533F51BC534F51CC535F513
:103D9E001DC536F5A9EC0FF033C54BF534C54CF502
:103DAE0035C54DF536C54EF5B8EC1FF04BC55AF579
:103DBE004CC55BF519EF1FF05AC501F55BC502F551
:103DCE00DEEC25F027EC26F034EF1FF05AC501F596
:103DDE005BC502F5D9EC25F0E9EF1EF05AC501F5E9
:103DEE005BC502F5D4EC25F025EC26F034EF1FF080
:103DFE005AC501F55BC502F5CFEC25F0FBEF1EF0C1
:103E0E005AC501F55BC502F5CAEC25F023EC26F088
:103E1E0034EF1FF05AC501F55BC502F5C5EC25F070
:103E2E000DEF1FF05950000AD8B4E3EF1EF0010A4F
:103E3E00D8B4EDEF1EF0030AD8B4F5EF1EF0010A68
:103E4E00D8B4FFEF1EF0070AD8B407EF1FF0010A2F
:103E5E00D8B411EF1FF034EF1FF01200000E050161
:103E6E006A15726F000E6B15736F800E6C15746F82
:103E7E007F0E6D15756F7251731174117511D8A473
:103E8E004BEF1FF04DEF1FF055EF1FF0000E6A6F56
:103E9E00000E6B6F000E6C6F000E6D6F000E6E15C8
:103EAE00726F000E6F15736F800E7015746F7F0E2C
:103EBE007115756F7251731174117511D8A46AEF63
:103ECE001FF06CEF1FF074EF1FF0000E6E6F000E00
:103EDE006F6F000E706F000E716F6DAF79EF1FF088
:103EEE007BEF1FF084EF1FF06A6D6B1FD8B06B2B4A
:103EFE006C1FD8B06C2B800E6D5771AF89EF1FF011
:103F0E008BEF1FF094EF1FF06E6D6F1FD8B06F2BFD
:103F1E00701FD8B0702B800E7157000E6A1B000EEA
:103F2E006B1B000E6C1B800E6D1B000E6E1B000EAD
:103F3E006F1B000E701B800E711B6E516A5D6F51F0
:103F4E006B5970516C5971516D59D8B0B1EF1FF05A
:103F5E00B3EF1FF0B6EF1FF0D890B7EF1FF0D88079
:103F6E0012004D344E34546E5450D8A4C1EF1FF08D
:103F7E00C3EF1FF0CDEF1FF0000E4B6E000E4C6E18
:103F8E00000E4D6E000E4E6E3AEF20F04BC54FF503
:103F9E004CC550F54DC551F54EC552F5200EDDEF11
:103FAE001FF0D8905232513250324F32E82ED8EFA5
:103FBE001FF04F50536E4D8EFF0E4B16FF0E4C16CC
:103FCE00FF0E4D16000E4E16960E545E54BEF4EFB6
:103FDE001FF0F2EF1FF00AEF20F05450800A970FF7
:103FEE00D8B0FCEF1FF0FEEF1FF000EF20F0C3EF94
:103FFE001FF0D8904E324D324C324B32543E00EFC1
:10400E0020F022EF20F01F0E546410EF20F012EF7C
:10401E0020F01AEF20F0C3EF1FF0D8904B364C363D
:10402E004D364E3654065450D8A420EF20F022EFD1
:10403E0020F014EF20F05350D8B428EF20F02AEFE0
:10404E0020F032EF20F04E1E4D1E4C1E4B6C000E1B
:10405E004C224D224E224BC54BF54CC54CF54DC551
:10406E004DF54EC54EF512000AC60BF50BC60CF5F6
:10407E000CC60DF50DC60EF501C50BF502C50CF5FA
:10408E0003C50DF504C50EF50BC505F50CC506F5F6
:10409E000DC507F50EC508F5180E5BEF20F0D8908C
:1040AE000832073206320532E82E56EF20F0055060
:1040BE00096E0A6A09500A10D8A468EF20F06AEF58
:1040CE0020F08AEF20F0D8900B34056E0C34066E7B
:1040DE000D34076E0E34086E0550061007100810CA
:1040EE00D8A47CEF20F07EEF20F084EF20F0000EBD
:1040FE00026E020E016EB9EF20F0000E026E030E7C
:10410E00016EB9EF20F009280A10D8A491EF20F023
:10411E0093EF20F0B5EF20F00BC505F50CC506F5B5
:10412E000DC507F50EC508F5090ED89005360636ED
:10413E0007360836E82E9CEF20F0055006100710C3
:10414E000810D8B4ADEF20F0B0EF20F0010EB1EFB3
:10415E0020F0000E016E026AB9EF20F0000E026E22
:10416E00040E016E120005500610D8B4C1EF20F0F7
:10417E00C3EF20F0CCEF20F005500610D8A4CAEF04
:10418E0020F0CCEF20F0D1EF20F003503FEC25F0E3
:10419E001EEF21F020EE0AF00550D9260650DA2245
:1041AE00DE50DE10D8B4DEEF20F0E0EF20F0FBEFB3
:1041BE0020F020EE0AF00550D9260650DA2210EE35
:1041CE0003F00550E1260650E222DE50E65CE65092
:1041DE00800A0B6EDE50800A0B58D8B0F9EF20F033
:1041EE00FBEF20F01EEF21F020EE03F00550D92654
:1041FE000650DA22DEC407F5DDC408F505C5D9F48C
:10420E0006C5DAF4DEC409F5DDC40AF50750092443
:10421E00D96E08500A20DA6E03C5DFF420EE03F0E3
:10422E000550D9260650DA22DE2A000EDD221200B3
:10423E00000E0F6E000E0E6E07C5D9F408C5DAF427
:10424E00DFC4F6F4150EF76EF86A0800F5502A0A68
:10425E00D8A434EF21F036EF21F066EF21F007C538
:10426E00D9F408C5DAF4DF2A09C5D9F40AC5DAF497
:10427E00DFC40BF5020EDE26DFC40CF5000EDD22C8
:10428E000BC5D9F40CC5DAF4DEC40EF5DDC40FF59A
:10429E007BEF21F00EC501F50FC502F5000E046E81
:1042AE000A0E036E1AEC25F00D5001240E6E000E50
:1042BE0002200F6E07C5D9F408C5DAF4DF2A07C548
:1042CE00D9F408C5DAF4DFC4F6F4150EF76EF86A01
:1042DE000800F550D00F0D6E090E0D6479EF21F028
:1042EE007BEF21F051EF21F00EC507F50FC508F554
:1042FE001200000E0114096E000E02140A6E800EDA
:10430E0003140B6E7F0E04140C6E09500A100B1062
:10431E000C10D8A495EF21F097EF21F09FEF21F02C
:10432E00000E016E000E026E000E036E000E046E85
:10433E00000E0514096E000E06140A6E800E071488
:10434E000B6E7F0E08140C6E09500A100B100C1019
:10435E00D8A4B4EF21F0B6EF21F0BEEF21F0000E9D
:10436E00056E000E066E000E076E000E086E0550EE
:10437E0001180FE1065002180CE10750031809E16D
:10438E0008500418D8B4CEEF21F0D0EF21F0D3EFBF
:10439E0021F0D890D4EF21F0D8801200000EBE6E1E
:1043AE00000EBF6E000EC06E0F0EC66E200EC76ED4
:1043BE000F0EC86E070E0401006F000E086F0F0E71
:1043CE00106F000E016F000E096F000E116F300E90
:1043DE00026F000E0A6F000E126F370E036FF00E93
:1043EE000B6F13693F0E046FF00E0C6F1469000E05
:1043FE000201876F000E866F0D0E726F100E106F1A
:10440E000E0E176F0F0E186F0C0E166F0D0E156F1A
:10441E000A0E0D6F0B0E0F6F000E0401056F000ECE
:10442E00066F000E076F000E0D6F000E0E6F000E62
:10443E000F6F000E156F000E166F000E176F120025
:10444E00000E0201A16F000EA26F000EA36F000EF0
:10445E00A46F000EA56F000EA66F000EA76F000EC4
:10446E00A86F000EA96F000EAA6FB00EAB6F800E74
:10447E00AC6F080EAD6F820EAE6F060EAF6F2E0EC6
:10448E00B06F000EB16F800EB26F000EB36F000EE4
:10449E00016E000E026E79EC25F0000E016E000E1C
:1044AE00026E6BEC25F0000E016E000E026E5DECDE
:1044BE0025F0000E0601216F000E206F120018BEAF
:1044CE006DEF22F06BEF22F071EF22F0000E186EFE
:1044DE00000E176E000E1B6E000E1A6E83EF22F08A
:1044EE00000E046E200E036E13C505F514C506F5F9
:1044FE00BAEC20F01A4A1B2A17501A5C1B50800A7D
:10450E00196E1850800A1958D8A090EF22F092EF29
:10451E0022F077EF22F015C50CF516C50DF513C573
:10452E000EF514C50FF55DEC24F01200000E7E6E34
:10453E00020E7F6E000E806E8168F90E826E130E73
:10454E00836E000E846E000E856E000E866E000E5B
:10455E00886EC00E896E120E8A6EC00E8B6E120E93
:10456E008C6EBA9CBA9E85908592AF9EAF9C000EC3
:10457E00016E000E026EE8EC25F0000E016E000ECC
:10458E00026EE3EC25F0000E016E000E026EEDECF5
:10459E0025F0800E876E1200000E6F6E020E706E8A
:1045AE00000E716E7268F90E736E130E746E000E3D
:1045BE00756E000E766E000E776E000E796EC00E62
:1045CE007A6E120E7B6EC00E7C6E120E7D6EB89CD5
:1045DE00B89E76907692AD9EAD9C000E016E000E4A
:1045EE00026EF7EC25F0000E016E000E026EF2EC7C
:1045FE0025F0000E016E000E026EFCEC25F0800E12
:10460E00786E1200000E606E020E616E000E626E0B
:10461E006368F90E646E130E656E000E666E000E04
:10462E00676E000E686E000E6A6E400E6B6E060EA2
:10463E006C6E400E6D6E1F0E6E6EB79CB79E6790C1
:10464E006792AC9EAC9C000E016E000E026E06ECE4
:10465E0026F0000E016E000E026E01EC26F0000E2A
:10466E00016E000E026E0BEC26F0800E696E1200CB
:10467E007E0EF66E4B0EF76E000EF86E01EE90F299
:10468E0010EE0CF00900F5C4EEF4E550E150FAE13D
:10469E00720EF66E4B0EF76E000EF86E01EEEFF127
:1046AE0010EE0CF00900F5C4EEF4E550E150FAE11D
:1046BE0001EE00F27E0EEE6AE806FDE10501FF6BEB
:1046CE00FE6BFD6BFC6BFB6B0001EBEF15F0D1C5C8
:1046DE00CBF5D2C5CCF5D3C5CDF5D4C5CEF58BEC87
:1046EE0019F0D5C5CBF5D6C5CCF5D7C5CDF5D8C502
:1046FE00CEF56CEC18F0D9C5CBF5DAC5CCF5DBC52B
:10470E00CDF5DCC5CEF54DEC17F0110E0501DE6FC3
:10471E003C0EDD6FCB0EE82EFED7DD2FFCD7DE2F45
:10472E00FAD7120004BE9EEF23F0A0EF23F0AAEFFB
:10473E0023F001C501F502C502F503C503F504C555
:10474E0004F5C3EF23F001C505F502C506F503C553
:10475E0007F504C508F5051E061E071E081E052AC8
:10476E00000E06220722082205C501F506C502F530
:10477E0007C503F508C504F51200B9C55FF5D7EFF7
:10478E0023F0B7C5A9F5B8C5AAF55F0E0501AB6F45
:10479E00050EAC6FBAC5ADF5BBC5AEF5AAEC1AF0F9
:1047AE005FC5F6F4150EF76EF86A0800F5500009AD
:1047BE00D8A4E4EF23F0E6EF23F0C8EF23F0000EC9
:1047CE000501B86F000EB76F120003C509F504C5D9
:1047DE000AF501C507F502C508F506EF24F009C56F
:1047EE00D9F40AC5DAF4DF500B6E094A0A2A07C556
:1047FE00D9F408C5DAF40BC5DFF4074A082A050612
:10480E00D8A00606052806E10628D8A411EF24F044
:10481E0013EF24F0F6EF23F01200BF0E0501C36F65
:10482E00050EC46FBCC5C5F5BDC5C6F5000EC96F76
:10483E00000EC86F000ED06F000ECF6FC50EB76F93
:10484E00050EB86FBEC5B9F5C30EBA6F050EBB6FB8
:10485E00C4EC23F00501C851BC25D96EC951BD2148
:10486E00DA6EDF6A1200000E471A000E481A000EAA
:10487E00491A800E4A1A43C533F544C534F545C569
:10488E0035F546C536F547C537F548C538F549C53A
:10489E0039F54AC53AF5A9EC0FF033C543F534C5E1
:1048AE0044F535C545F536C546F51200000E126EB7
:1048BE00000E116E6EEF24F010C503F5046A0EC5DE
:1048CE0005F50FC506F5BAEC20F0114A122A115063
:1048DE000C24D96E12500D20DA6EDF50106E10506F
:1048EE00D8A47CEF24F07EEF24F063EF24F01200C6
:1048FE0001C505F502C506F5032A0304046E04C5B9
:10490E00F6F4150EF76EF86A05C5D9F406C5DAF495
:10491E00054A062A0800F5C4DFF4DF50D8A49AEF42
:10492E0024F09CEF24F083EF24F0120001500210CB
:10493E0003100410D8B4A6EF24F0A8EF24F0B0EFC3
:10494E0024F0000E011A000E021A000E031A800E39
:10495E00041A01C501F502C502F503C503F504C528
:10496E0004F5120056BEBEEF24F0C0EF24F0C6EFE1
:10497E0024F055C555F556C556F5D2EF24F055C55C
:10498E0057F556C558F5571E581E574A582A57C53B
:10499E0055F558C556F51200D69AB490D680000E2D
:1049AE00016E000E026E1AEC26F0B990D682000E41
:1049BE00016E000E026E15EC26F0BD90D684000E30
:1049CE00016E000E026E10EC26F01200000E556EF7
:1049DE00000E566E000E576E000E586E040E9CECB6
:1049EE001EF0290E5D6E960E5C6E7F0EE82EFED7C3
:1049FE005C2EFCD75D2EFAD700001200000E016E61
:104A0E000201B0AB0DEF25F00FEF25F018EF25F0FA
:104A1E00ABAB14EF25F016EF25F018EF25F0010ED5
:104A2E00016E0150120001500302F3C405F5F4C4E7
:104A3E0006F501500402F350062602500302F3500D
:104A4E00062605C501F506C502F51200BD0E0501C7
:104A5E00C96F050ECA6F000EB76F000EB86FBCC5DA
:104A6E00B9F5C90EBA6F050EBB6FC4EC23F0120078
:104A7E00026E05EC25F00009D8B448EF25F04AEF98
:104A8E0025F040EF25F002501FEC26F0120087ECC7
:104A9E0025F0D5EC21F009EC23F0D3EC22F09DECBF
:104AAE0022F027EC22F0D3EC24F012000150021079
:104ABE00D8B464EF25F066EF25F06AEF25F001C556
:104ACE001AF602C51BF6120001500210D8B472EF8E
:104ADE0025F074EF25F078EF25F001C51CF602C520
:104AEE001DF6120001500210D8B480EF25F082EFAF
:104AFE0025F086EF25F001C51EF602C51FF6120041
:104B0E00600E0001AD6F000EAF6F000EB36F080E9A
:104B1E00B16F000EB06F000EAC6F1200000E0501EB
:104B2E00766F000E776F200E786F420E796FBFECA6
:104B3E001CF01200000E0501766F000E776F200E2E
:104B4E00786F410E796FBFEC1CF01200000E556E9F
:104B5E00000E566EB40E576E420E586E040E9CEC3E
:104B6E001EF012000000B4420000B4420000B44235
:104B7E0002010005040301020304050601C58BF4BE
:104B8E0002508C6E120001C589F402508A6E12001A
:104B9E0001C57CF402507D6E120001C57AF40250FC
:104BAE007B6E120001C56DF402506E6E120001C5CF
:104BBE006BF402506C6E120001C58CF602C58DF6B8
:104BCE00120001C58EF602C58FF6120001C58AF6D7
:104BDE0002C58BF6120001C586F602C587F61200D5
:104BEE0001C588F602C589F6120001C584F602C514
:104BFE0085F6120001C580F602C581F6120001C5C8
:104C0E0082F602C583F6120001C57EF602C57FF656
:104C1E00120001C522F602C523F6120001C524F6C4
:104C2E0002C525F6120001C526F602C527F61200AA
:104C3E00016E01C5A3F2120087841200788412005F
:044C4E006984120063
:04FFFC003FEF23F0C0
:020000040030CA
:090000008FFFF7FF9FFFFFFFFFD8
:00000001FF
