:040000000DEF00F010
:040008000BEF28F0E2
:06001800FF0014EF25F0CB
:1015000000AA49000000001A5300007650000000B5
:1015100000000000000000000000000000000000CB
:101520000000000000000000000252E651CA510015
:1015300000E44F3853325346529852000025633A24
:10154000252E31662C252E31662C252E31660A007B
:10155000256C64202D3E20004E554C4C0A00696ECF
:0715600066006E616E0000E1
:10156800000E0501946F6EC595F56FC596F570C5AB
:1015780097F571C598F598BFC6EF0AF0C4EF0AF061
:10158800DAEF0AF0010E946F95C503F596C504F5D8
:1015980097C505F598C506F5A1EC27F003C595F59F
:1015A80004C596F505C597F506C598F5000E05011D
:1015B8009A6F000E996F08C684F509C685F594518F
:1015C800D8B4E9EF0AF0EBEF0AF0FFEF0AF0945114
:1015D800D8A4F1EF0AF0F3EF0AF0F9EF0AF0000EE1
:1015E8007A6F2B0E796FFDEF0AF0000E7A6F2D0ED1
:1015F800796F79C594F595C503F596C504F597C532
:1016080005F598C506F529EC22F003040410D8A4C2
:1016180010EF0BF012EF0BF043EF0BF005019451B4
:10162800D8B419EF0BF01BEF0BF024EF0BF094C5B7
:1016380012F68407D8A08507000E9A6F010E996FDD
:10164800120E9925036E060E9A21046E5E0E056E23
:1016580067EC27F00501FD0E8427FF0E85236CC576
:1016680015F56DC516F5120E176E060E186E84C5A3
:1016780019F585C51AF54CEC25F0ABEF0FF095C5BB
:1016880003F596C504F597C505F598C506F529EC43
:1016980022F003500410D8A454EF0BF056EF0BF0CF
:1016A80074EF0BF005019451D8B45DEF0BF05FEFC8
:1016B8000BF068EF0BF094C512F68407D8A08507E5
:1016C800000E9A6F010E996F120E9925036E060E81
:1016D8009A21046E620E056E67EC27F02EEF0BF070
:1016E800000E05019B6F000E9C6F800E9D6F3F0ED4
:1016F8009E6F000E836F000E826F95C503F596C529
:1017080004F597C505F598C506F5000E076E000E99
:10171800086E000E096E000E0A6EE4EC23F0D8B0D5
:1017280098EF0BF09AEF0BF07AEF0CF0A7EF0BF0B5
:1017380086C59BF587C59CF588C59DF589C59EF529
:101748000501824B832B9BC51CF59CC51DF59DC5CA
:101758001EF59EC51FF5000E206E000E216E200E90
:10176800226E410E236E0CEC12F01CC586F51DC5C9
:1017780087F51EC588F51FC589F505018651955D54
:10178800036E87519659046E88519759056E895191
:101798009859066E25EC26F006BEDEEF0BF00650D3
:1017A8000510041009E1020E035CD8A0DEEF0BF06F
:1017B800E0EF0BF09CEF0BF086C560F587C561F58F
:1017C80088C562F589C563F595C564F596C565F55F
:1017D80097C566F598C567F523EC21F00501D8A0F3
:1017E800F8EF0BF0FAEF0BF09CEF0BF09B51955DC7
:1017F800036E9C519659046E9D519759056E9E51E2
:101808009859066E25EC26F006BE18EF0CF0065027
:101818000510041007E1020E035CD8B016EF0CF0B7
:1018280018EF0CF060EF0CF09BC595F59CC596F58C
:101838009DC597F59EC598F57AEF0CF09BC503F505
:101848009CC504F59DC505F59EC506F5000E076EF9
:10185800000E086E200E096E410E0A6E04EC16F09A
:1018680003C59BF504C59CF505C59DF506C59EF504
:1018780005018207D8A083079B51955D036E9C5193
:101888009659046E9D519759056E9E519859066E4A
:1018980025EC26F006BE5EEF0CF00650051004108D
:1018A80007E1020E035CD8B05CEF0CF05EEF0CF0C1
:1018B80060EF0CF018EF0CF095C560F596C561F572
:1018C80097C562F598C563F59BC564F59CC565F534
:1018D8009DC566F59EC567F523EC21F00501D8A0E6
:1018E80078EF0CF07AEF0CF022EF0CF072C57CF573
:1018F8007CC57DF50501E2BF84EF0CF086EF0CF0A6
:101908008CEF0CF0E1C575F5E2C576F590EF0CF0BB
:10191800000E766F060E756F75C580F576C581F574
:10192800804B812B660E7D19D8A49DEF0CF09FEF9C
:101938000CF0BFEF0CF083BFA6EF0CF0A4EF0CF097
:10194800B2EF0CF0000E9B6F000E9C6F800E9D6F27
:101958003F0E9E6F000E836F000E826F670E7C191C
:10196800D8B4B9EF0CF0BBEF0CF0BFEF0CF082511C
:10197800802783518123000E8B6F000E8A6F95C5D7
:101988008CF596C58DF597C58EF598C58FF59BC5D1
:1019980086F59CC587F59DC588F59EC589F550EFE8
:1019A8000DF08CC503F58DC504F58EC505F58FC5FD
:1019B80006F59BC507F59CC508F59DC509F59EC5A7
:1019C8000AF504EC16F003C51CF504C51DF505C59C
:1019D8001EF506C51FF560EC1CF01CC590F51DC56D
:1019E80091F51EC592F51FC593F590C53DF591C5B6
:1019F8003EF592C53FF593C540F5A6EC21F03DC5EF
:101A08007EF53EC57FF58CC535F58DC536F58EC599
:101A180037F58FC538F590C520F591C521F592C5E4
:101A280022F593C523F59BC51CF59CC51DF59DC5E1
:101A38001EF59EC51FF50CEC12F01CC539F51DC529
:101A48003AF51EC53BF51FC53CF5A0EC26F035C59B
:101A58008CF536C58DF537C58EF538C58FF59BC520
:101A680003F59CC504F59DC505F59EC506F5000E54
:101A7800076E000E086E200E096E410E0A6E04EC09
:101A880016F003C59BF504C59CF505C59DF506C56F
:101A98009EF505018A4B8B2B80518A5D8B51800AFC
:101AA800596E8151800A5958D8A05DEF0DF05FEF4B
:101AB8000DF0D5EF0CF09BC51CF59CC51DF59DC51B
:101AC8001EF59EC51FF5000E206E000E216EA00E9D
:101AD800226E400E236E0CEC12F01CC590F51DC54D
:101AE80091F51EC592F51FC593F58CC560F58DC59A
:101AF80061F58EC562F58FC563F590C564F591C52E
:101B080065F592C566F593C567F523EC21F00501E7
:101B1800D8B091EF0DF093EF0DF09DEF0DF0000EA2
:101B2800906F000E916F000E926F000E936FC6EFCC
:101B38000DF08CC503F58DC504F58EC505F58FC56B
:101B480006F590C507F591C508F592C509F593C541
:101B58000AF5E4EC23F0D8A0B4EF0DF0B6EF0DF0E1
:101B6800C6EF0DF005017EB1BCEF0DF0BEEF0DF034
:101B7800C6EF0DF0000E906F000E916F000E926F81
:101B8800000E936F95C503F596C504F597C505F541
:101B980098C506F590C507F591C508F592C509F5EC
:101BA80093C50AF5ACEC0FF003C58CF504C58DF5AB
:101BB80005C58EF506C58FF58CC560F58DC561F533
:101BC8008EC562F58FC563F5000E206E000E216E7E
:101BD800200E226E410E236E86C51CF587C51DF5A5
:101BE80088C51EF589C51FF50CEC12F01CC564F5F7
:101BF8001DC565F51EC566F51FC567F523EC21F003
:101C08000501D8A00AEF0EF00CEF0EF034EF0EF03D
:101C1800824B832B86C51CF587C51DF588C51EF527
:101C280089C51FF5000E206E000E216E200E226E53
:101C3800410E236E0CEC12F01CC586F51DC587F508
:101C48001EC588F51FC589F5660E05017D19D8A43E
:101C580030EF0EF032EF0EF034EF0EF0804B812BA8
:101C680086C59BF587C59CF588C59DF589C59EF5F4
:101C780082C573F583C574F5000E7B6F000E786F0F
:101C8800000E776F000E8B6F000E8A6F31EF0FF02A
:101C98008CC503F58DC504F58EC505F58FC506F50C
:101CA8009BC507F59CC508F59DC509F59EC50AF5B0
:101CB80004EC16F003C51CF504C51DF505C51EF595
:101CC80006C51FF560EC1CF01CC590F51DC591F507
:101CD8001EC592F51FC593F590C53DF591C53EF516
:101CE80092C53FF593C540F5A6EC21F03EBE88EFBE
:101CF8000EF03E5007E10A0E3D5CD8B086EF0EF0BC
:101D080088EF0EF098EF0EF090C53DF591C53EF5C1
:101D180092C53FF593C540F5A6EC21F03DC57EF58B
:101D28003EC57FF59DEF0EF0000E05017F6F090E91
:101D38007E6F05017B51D8A4A4EF0EF0A6EF0EF03C
:101D4800CEEF0EF074BFADEF0EF0ABEF0EF0CEEFAE
:101D58000EF0120E9925D96E060E9A21DA6E2E0E05
:101D6800DF6E994B9A2B8407D8A08507010E7B6FED
:101D7800CEEF0EF0120E9925D96E060E9A21DA6E64
:101D8800300EDF6E994B9A2B8407D8A0850777070A
:101D9800D8A0780777517811D8A4D5EF0EF0D7EFEF
:101DA8000EF0BEEF0EF0120E9925D96E060E9A218E
:101DB800DA6E7E51300FDF6E994B9A2B8407D8A0CC
:101DC80085078CC535F58DC536F58EC537F58FC5B4
:101DD80038F590C520F591C521F592C522F593C532
:101DE80023F59BC51CF59CC51DF59DC51EF59EC517
:101DF8001FF50CEC12F01CC539F51DC53AF51EC5CA
:101E08003BF51FC53CF5A0EC26F035C58CF536C56D
:101E18008DF537C58EF538C58FF59BC503F59CC57F
:101E280004F59DC505F59EC506F5000E076E000E66
:101E3800086E200E096E410E0A6E04EC16F003C5FA
:101E48009BF504C59CF505C59DF506C59EF50501E0
:101E58007307D8A074078A4B8B2B80518A5D8B51EE
:101E6800800A596E8151800A5958D8B03EEF0FF058
:101E780040EF0FF04EEF0FF09ABF4CEF0FF09A5172
:101E880009E14B0E995DD8A04CEF0FF04EEF0FF023
:101E98004CEF0EF0000E8B6F4F0E8A6F120E8A25D4
:101EA800D96E060E8B21DA6EDF6A120E596E060E97
:101EB8005A6E9951595E9A515A5A8A515924036E49
:101EC8008B515A20046E120E056E060E066E99C5C9
:101ED80007F59AC508F578EC26F0050199518A5D51
:101EE800996F9A518B599A6F9451D8A47EEF0FF03D
:101EF80081EF0FF0010E82EF0FF0000E8A6F8B6BEF
:101F08009451D8B48AEF0FF08CEF0FF097EF0FF0E1
:101F18009907D8A09A07120E9925D96E060E9A210C
:101F2800DA6E94C5DFF48A51845F8B51855B6CC58A
:101F380015F56DC516F5120E9925176E060E9A2120
:101F4800186E84C519F585C51AF54CEC25F01200F4
:101F58000650800B0F6E06500624116E05AEB7EFC3
:101F68000FF0B9EF0FF0BAEF0FF011801150D8B49D
:101F7800C0EF0FF0C2EF0FF0D7EF0FF01128D8A481
:101F8800C8EF0FF0CAEF0FF0D2EF0FF0000E036E9C
:101F9800000E046E000E056E000E066E058E000E15
:101FA800066EDFEF0FF0000E036E000E046E000EDB
:101FB800056E000E066E0A50800B106E0F5010183A
:101FC800D8B4E9EF0FF0EBEF0FF0ECEF0FF00F8C58
:101FD8000A500A24106E09AEF4EF0FF0F6EF0FF076
:101FE800F7EF0FF010801050D8B4FDEF0FF0FFEFAF
:101FF8000FF014EF10F01028D8A405EF10F007EF39
:1020080010F00FEF10F0000E076E000E086E000EB5
:10201800096E000E0A6E098E000E0A6E1CEF10F093
:10202800000E076E000E086E000E096E000E0A6E96
:102038001150105CD8B023EF10F025EF10F04CEFE2
:1020480010F00FAC2AEF10F02CEF10F02EEF10F07C
:10205800800E0F1A11C512F510C511F512C510F52D
:1020680003C512F507C503F512C507F504C512F532
:1020780008C504F512C508F505C512F509C505F525
:1020880012C509F506C512F50AC506F512C50AF501
:10209800000E126E115010C50BF50C6A0B5E000E87
:1020A8000C5A0CBE61EF10F00C5009E11A0E0B5CD3
:1020B800D8A061EF10F063EF10F09AEF10F0035022
:1020C800041005100610D8A46CEF10F06FEF10F094
:1020D800010E70EF10F0000E126E000E036E000E6F
:1020E800046E000E056E000E066E10C511F5A3EF06
:1020F80010F012A082EF10F084EF10F08AEF10F0C9
:10210800D89012300109126E8CEF10F0D89012326C
:1021180003A091EF10F093EF10F094EF10F0128EEF
:1021280006340632053204320332112A1050115C8B
:10213800D8A0A1EF10F0A3EF10F07DEF10F00FBCC6
:10214800A8EF10F0AAEF10F0EAEF10F01150D8A4A1
:10215800B0EF10F0B2EF10F0BCEF10F0000E036E0D
:10216800000E046E000E056E000E066E0BEF12F0E8
:102178000750032608500422095005220A50062257
:1021880006A0C9EF10F0CBEF10F077EF11F012A016
:10219800D0EF10F0D2EF10F0D8EF10F0D890123046
:1021A8000109126EDAEF10F0D890123203A0DFEFB7
:1021B80010F0E1EF10F0E2EF10F0128E0634063264
:1021C800053204320332112A77EF11F00750035C0D
:1021D80008500458095005580650800A0B6E0A50DA
:1021E800800A0B58D8B0FBEF10F0FDEF10F028EF85
:1021F80011F00350075C0B6E045008580C6E055024
:1022080009580D6E06500A580E6EFF0E0B24036E09
:10221800FF0E0C20046EFF0E0D20056EFF0E0E2023
:10222800066E800E0F1A126C1250D8A41EEF11F011
:1022380020EF11F030EF11F0010E0326000E0422FA
:102248000522062230EF11F00750035E0850045AA9
:102258000950055A0A50065A035004100510061072
:10226800D8A439EF11F03BEF11F070EF11F01250D4
:10227800D8A441EF11F043EF11F070EF11F0000E08
:10228800036E000E046E000E056E000E066E0BEF58
:1022980012F0D890033604360536063612AE57EFDC
:1022A80011F059EF11F05AEF11F0038012A05FEF0F
:1022B80011F061EF11F065EF11F0D880123667EF79
:1022C80011F0D89012361150D8B46DEF11F06FEFAD
:1022D80011F070EF11F0110605AE75EF11F077EF00
:1022E80011F04DEF11F0000E106E12AE7EEF11F0EE
:1022F80080EF11F098EF11F012C50BF57F0E0B1659
:10230800D8B489EF11F08BEF11F08FEF11F0010EB7
:10231800106E98EF11F003A094EF11F096EF11F002
:1023280098EF11F08BEF11F01050D8B49EEF11F028
:10233800A0EF11F0CBEF11F0010E0326000E0422DE
:102348000522062206A0ABEF11F0ADEF11F0CBEF9E
:1023580011F003C50BF504C50CF505C50DF506C54B
:102368000EF50E340E320D320C320B320BC503F55E
:102378000CC504F50DC505F50EC506F51128D8B42C
:10238800C8EF11F0CAEF11F0CBEF11F0112A1128A4
:10239800D8B4D1EF11F0D3EF11F0DBEF11F01150F9
:1023A800D8A4D9EF11F0DBEF11F0EDEF11F0000E2A
:1023B800036E000E046E000E056E000E066E1150C0
:1023C800D8A4E9EF11F0EBEF11F0EDEF11F0000EEA
:1023D8000F6E11A0F2EF11F0F4EF11F0F7EF11F01A
:1023E800058EF8EF11F0059ED8901130066E0FAEED
:1023F80000EF12F002EF12F003EF12F0068E03C5A1
:1024080003F504C504F505C505F506C506F512006E
:102418001F50800B286E1F501F242E6E1EAE17EF04
:1024280012F019EF12F01AEF12F02E802E50D8B4D5
:1024380020EF12F022EF12F035EF12F02E28D8A478
:1024480028EF12F02AEF12F032EF12F0000E1C6E95
:10245800000E1D6E000E1E6E000E1F6E1E8E3DEFCE
:1024680012F0000E1C6E000E1D6E000E1E6E000E89
:102478001F6E2350800B281A235023242D6E22AE62
:1024880048EF12F04AEF12F04BEF12F02D802D506A
:10249800D8B451EF12F053EF12F066EF12F02D2876
:1024A800D8A459EF12F05BEF12F063EF12F0000EB0
:1024B800206E000E216E000E226E000E236E228EFC
:1024C8006EEF12F0000E206E000E216E000E226ECE
:1024D800000E236E2D50D8B474EF12F076EF12F080
:1024E8007EEF12F02E50D8A47CEF12F07EEF12F09F
:1024F80088EF12F0000E1C6E000E1D6E000E1E6E90
:10250800000E1F6E20EF14F022501C02F3C433F5A6
:10251800F4C434F53350296E2A6A2B6A2C6A345075
:102528002F6E306A316A326A21501D02F3C433F5C6
:10253800F4C434F533502926000E2A222B222C22EB
:1025480034502F26000E30223122322220501E0213
:10255800F3C433F5F4C434F533502926000E2A2287
:102568002B222C2234502F26000E302231223222E8
:102578002BC52CF52AC52BF529C52AF5296A205023
:102588001D02F3C433F5F4C434F53350292634500E
:102598002A22000E2B22000E2C2221501C02F3C4EA
:1025A80033F5F4C434F53350292634502A22000E6A
:1025B8002B22000E2C222BC52CF52AC52BF529C55C
:1025C8002AF5296A20501C02F3C433F5F4C434F503
:1025D8003350292634502A22000E2B22000E2C229A
:1025E80022501D02F3C433F5F4C434F533502F26BA
:1025F80034503022000E3122000E322221501E02A9
:10260800F3C433F5F4C434F533502F263450302254
:10261800000E3122000E322222501E02F3C433F57E
:10262800F4C434F53350246E3450256E266A276A74
:1026380026C527F525C526F524C525F5246A245081
:102648002F2625503022265031222750322229C5E4
:1026580024F52AC525F52BC526F52CC527F5190E11
:102668003BEF13F0D8902732263225322432E82E59
:1026780036EF13F024502F262550302226503122D1
:10268800275032222BC52CF52AC52BF529C52AF54A
:10269800296A2D502EC524F5256A2426000E2522E8
:1026A800820E2424336EFF0E2520346E71EF13F052
:1026B800D8902F363036313632362CAE66EF13F0DE
:1026C80068EF13F069EF13F02F80D89029362A3677
:1026D8002B362C363306D8A0340631AE76EF13F0FD
:1026E80078EF13F05CEF13F0000E2D6E2CAE7FEF39
:1026F80013F081EF13F0A5EF13F0FF0E2914246EE9
:10270800FF0E2A14256EFF0E2B14266E7F0E2C1436
:10271800276E2450251026102710D8B496EF13F0F2
:1027280098EF13F09CEF13F0010E2D6EA5EF13F048
:102738002FA0A1EF13F0A3EF13F0A5EF13F098EF7C
:1027480013F02D50D8B4ABEF13F0ADEF13F0D1EF79
:1027580013F0010E2F26000E30223122322232A031
:10276800B8EF13F0BAEF13F0D1EF13F02FC524F53B
:1027780030C525F531C526F532C527F5273427326A
:1027880026322532243224C52FF525C530F526C535
:1027980031F527C532F5334A342A34BEDCEF13F05D
:1027A800345008E13328D8A0DCEF13F0DEEF13F043
:1027B800E8EF13F0000E2F6E000E306E800E316EB3
:1027C8007F0E326E16EF14F034BEF5EF13F034506E
:1027D80006E13304D8B0F3EF13F0F5EF13F001EF8F
:1027E80014F0000E2F6E000E306E000E316E000ECB
:1027F800326E000E286E16EF14F033C52EF5FF0E5C
:102808002F16FF0E30167F0E3116000E32162EA030
:1028180010EF14F012EF14F013EF14F0318ED8907B
:102828002E30326E285032122FC51CF530C51DF5DA
:1028380031C51EF532C51FF51200A1C5D9F4A2C5D0
:10284800DAF4DFC4F6F4150EF76EF86A0800F550EE
:10285800250AD8A432EF14F034EF14F0EEEF15F097
:10286800A1C5D9F4A2C5DAF4DF2A000E0601096F62
:10287800000E086F08C6EDF50501E169E269A1C51A
:10288800D9F4A2C5DAF4DFC4F6F4150EF76EF86AC7
:102898000800F5502E0AD8A454EF14F056EF14F09F
:1028A80069EF14F0A1C5D9F4A2C5DAF4DF2AA1C5ED
:1028B80009F5A2C50AF5A3C50BF5A4C50CF583EC6B
:1028C80023F009C5E1F50AC5E2F5A1C5D9F4A2C509
:1028D800DAF4DFC4F6F4150EF76EF86A0800F5505E
:1028E800630AD8A47AEF14F07CEF14F09FEF14F089
:1028F800A1C5D9F4A2C5DAF4DF2AA3C5D9F4A4C5C1
:10290800DAF4DFC4A5F5020EDE26DFC4A6F5000E54
:10291800DD22A5C5D9F4A6C5DAF4DF500501AB6FF1
:10292800ABC505F5066A9FC507F5A0C508F51EECF9
:1029380023F003EF16F0A1C5D9F4A2C5DAF4DF50ED
:102948000501AC6FACC5F6F4150EF76EF86A080011
:10295800F5C4ABF5BBEF14F0AC2BCAEF14F0690E5D
:10296800AB6FCAEF14F0000EAB6FCAEF14F0AB51A7
:10297800640AD8B4B3EF14F00D0AD8B4B3EF14F066
:10298800050AD8B4B0EF14F0B7EF14F0ACC5F6F4FC
:10299800150EF76EF86A0800F550640AD8B4D7EF38
:1029A80014F0D9EF14F01FEF15F0ACC5F6F4150EBE
:1029B800F76EF86A0800F550690AD8A4E6EF14F033
:1029C800E8EF14F040EF15F01FEF15F0A3C5D9F4A8
:1029D800A4C5DAF4DFC4A5F5020EDE26DFC4A6F529
:1029E800000EDD22A5C5D9F4A6C5DAF4DEC4A7F524
:1029F800DDC4A8F5000EA8BFFF0EA96FAA6F2AEFC5
:102A080015F0A3C5D9F4A4C5DAF4DFC4A5F5040EFE
:102A1800DE26DFC4A6F5000EDD22A5C5D9F4A6C5BD
:102A2800DAF4DEC4A7F5DEC4A8F5DEC4A9F5DEC471
:102A3800AAF52AEF15F0AB51690AD8B4EAEF14F0F9
:102A4800050AD8B405EF15F02AEF15F0AC29A1C591
:102A5800D9F4A2C5DAF4DF6E9FC54BF5A0C54CF5D5
:102A6800A7C54DF5A8C54EF5A9C54FF5AAC550F59A
:102A780041EC1FF003EF16F0A1C5D9F4A2C5DAF4B2
:102A8800DF50AC6FACC5F6F4150EF76EF86A0800A7
:102A9800F5C4ABF55BEF15F0AC2B6AEF15F06C0ED7
:102AA800AB6F6AEF15F0000EAB6F6AEF15F0AB5124
:102AB8004C0AD8B450EF15F02A0AD8B453EF15F0E1
:102AC8000A0AD8B450EF15F057EF15F0ACC5F6F474
:102AD800150EF76EF86A0800F550660AD8A477EF65
:102AE80015F079EF15F0E7EF15F0AFEF15F0A3C586
:102AF800D9F4A4C5DAF4DFC4A5F5040EDE26DFC4D4
:102B0800A6F5000EDD22A5C5D9F4A6C5DAF4DEC403
:102B1800A7F5DEC4A8F5DEC4A9F5DEC4AAF5BAEFA8
:102B280015F0A3C5D9F4A4C5DAF4DFC4A5F5040EDD
:102B3800DE26DFC4A6F5000EDD22A5C5D9F4A6C59C
:102B4800DAF4DEC4A7F5DEC4A8F5DEC4A9F5DEC450
:102B5800AAF5BAEF15F0AB514C0AD8B495EF15F0B9
:102B6800200AD8B47BEF15F0BAEF15F0AC29A1C54F
:102B7800D9F4A2C5DAF4DF6EDAEF15F09FC56CF56B
:102B8800A0C56DF5A7C56EF5A8C56FF5A9C570F503
:102B9800AAC571F5ACC5F6F4150EF76EF86A08000B
:102BA800F5C472F5B4EC0AF003EF16F0ACC5F6F410
:102BB800150EF76EF86A0800F550660AD8B4C2EF29
:102BC80015F0E7EF15F0A1C5D9F4A2C5DAF4DF2AAC
:102BD80003EF16F0A1C5D9F4A2C5DAF4DFC4F6F400
:102BE800150EF76EF86A0800F550056E066A9FC55F
:102BF80007F5A0C508F51EEC23F0E7EF15F0120065
:102C08000650800B136E065006241A6E05AE0FEFA1
:102C180016F011EF16F012EF16F01A801A50D8B409
:102C280018EF16F01AEF16F02FEF16F01A28D8A49E
:102C380020EF16F022EF16F02AEF16F0000E036EC2
:102C4800000E046E000E056E000E066E058E000E58
:102C5800066E37EF16F0000E036E000E046E000EBF
:102C6800056E000E066E0A50800B131A0A500A24CD
:102C78001B6E09AE42EF16F044EF16F045EF16F062
:102C88001B801B50D8B44BEF16F04DEF16F062EFD7
:102C980016F01B28D8A453EF16F055EF16F05DEF89
:102CA80016F0000E076E000E086E000E096E000E7C
:102CB8000A6E098E000E0A6E6AEF16F0000E076E95
:102CC800000E086E000E096E000E0A6E07500810FE
:102CD80009100A10D8A473EF16F075EF16F08DEFEF
:102CE80016F0000E036E000E046E000E056E000E48
:102CF800066E800E05127F0E06121350061203C5CB
:102D080003F504C504F505C505F506C506F5D0EFB8
:102D180017F01A50D8A493EF16F095EF16F09FEF1E
:102D280016F0000E036E000E046E000E056E000E07
:102D3800066ED0EF17F01B501AC50BF50C6A0B5E28
:102D4800000E0C5A7F0E0B24146E000E0C20156E0C
:102D580003C50FF504C510F505C511F506C512F52F
:102D6800000E036E000E046E000E056E000E066E59
:102D7800000E166E000E176E000E186E000E196EFD
:102D8800000E1B6E00EF17F01B50D8B4CEEF16F0F4
:102D9800D0EF16F0E7EF16F0D8900F361036113650
:102DA8001236D890033604360536063619AEDFEFEC
:102DB80016F0E1EF16F0E2EF16F00380D890163621
:102DC80017361836193607500F5C08501058095036
:102DD80011580A501258D8A0F4EF16F0F6EF16F072
:102DE800FFEF16F0198C07500F5E0850105A095063
:102DF800115A0A50125A1B2A190E1B6406EF17F0B3
:102E080008EF17F0C8EF16F00F501010111012103D
:102E1800D8B411EF17F013EF17F02BEF17F0168057
:102E28002BEF17F0D890033604360536063619AE60
:102E380020EF17F022EF17F023EF17F00380D89058
:102E480016361736183619361406D8A0150605AEE4
:102E580030EF17F032EF17F016EF17F0000E1B6E79
:102E680019AE39EF17F03BEF17F05FEF17F0FF0ED1
:102E780016140B6EFF0E17140C6EFF0E18140D6E41
:102E88007F0E19140E6E0B500C100D100E10D8B4C6
:102E980050EF17F052EF17F056EF17F0010E1B6EB8
:102EA8005FEF17F003A05BEF17F05DEF17F05FEF30
:102EB80017F052EF17F01B50D8B465EF17F067EF13
:102EC80017F08BEF17F0010E0326000E04220522DF
:102ED800062206A072EF17F074EF17F08BEF17F0C9
:102EE80003C50BF504C50CF505C50DF506C50EF5AE
:102EF8000E340E320D320C320B320BC503F50CC5F5
:102F080004F50DC505F50EC506F5144A152A15BEB6
:102F180096EF17F0155008E11428D8A096EF17F08F
:102F280098EF17F0A3EF17F0000E156E1468000E57
:102F3800036E000E046E000E056E000E066E15BEC2
:102F4800B0EF17F0155006E11404D8B0AEEF17F043
:102F5800B0EF17F0BEEF17F0000E156E000E146EEE
:102F6800000E036E000E046E000E056E000E066E57
:102F7800000E136E14C51AF51AA0C5EF17F0C7EFA7
:102F880017F0CAEF17F0058ECBEF17F0059ED89013
:102F98001A30066E81EF16F012000501C6BFD9EF90
:102FA80017F0D7EF17F0E3EF17F0000EC36F000E1E
:102FB800C46F000EC56F000EC66FA9EF18F0000EA3
:102FC800606F000E616F340E626F430E636FC3C58E
:102FD80064F5C4C565F5C5C566F5C6C567F523ECD2
:102FE80021F00501D8B0FBEF17F0FDEF17F0A9EFBE
:102FF80018F0000EC36F000EC46F340EC56F430E79
:10300800C66FA9EF18F0F3C560F5F4C561F5F5C50D
:1030180062F5F6C563F5C3C564F5C4C565F5C5C5F0
:1030280066F5C6C567F523EC21F00501D8B01FEF9A
:1030380018F021EF18F03DEF18F0F3C503F5F4C5CB
:1030480004F5F5C505F5F6C506F5000E076E000E84
:10305800086E800E096E3F0E0A6EACEC0FF003C5C9
:10306800F3F504C5F4F505C5F5F506C5F6F571EFF4
:1030780018F0C3C560F5C4C561F5C5C562F5C6C518
:1030880063F5F3C564F5F4C565F5F5C566F5F6C5EC
:1030980067F523EC21F00501D8B055EF18F057EF8C
:1030A80018F071EF18F0F3C535F5F4C536F5F5C528
:1030B80037F5F6C538F5000E396E000E3A6E800EFB
:1030C8003B6E3F0E3C6EA0EC26F035C5F3F536C5D9
:1030D800F4F537C5F5F538C5F6F5F3C547F5F4C584
:1030E80048F5F5C549F5F6C54AF5020E16EC20F087
:1030F8003D0E0501B26FEFC5B3F5B46BFBC5B5F571
:10310800FCC5B6F5FDC5B7F5FEC5B8F5F7C5B9F503
:10311800F8C5BAF5F9C5BBF5FAC5BCF5F3C5BDF5F3
:10312800F4C5BEF5F5C5BFF5F6C5C0F5B3EC28F096
:10313800020E0501C86FA00EC76F920EE82EFED7CB
:10314800C72FFCD7C82FFAD70000CD0E0501606F36
:10315800CC0E616FCC0E626F3D0E636FC3C539F53F
:10316800C4C53AF5C5C53BF5C6C53CF5F3C535F547
:10317800F4C536F5F5C537F5F6C538F5A0EC26F0F3
:1031880035C53DF536C53EF537C53FF538C540F57B
:10319800A6EC21F03DC547F53EC548F5D8EC27F02B
:1031A80047C54BF548C54CF5000E4CBEFF0E4D6E9D
:1031B8004E6E010E67EC1EF04BC564F54CC565F507
:1031C8004DC566F54EC567F523EC21F00501D8B06D
:1031D800F0EF18F0F2EF18F0FAEF18F0EE51D8B45B
:1031E800F8EF18F0FAEF18F007EF18F0000EEE6F8E
:1031F80012000501C6BF05EF19F003EF19F00FEF34
:1032080019F0000EC36F000EC46F000EC56F000EDC
:10321800C66FD5EF19F0000E606F000E616F340EA7
:10322800626F430E636FC3C564F5C4C565F5C5C554
:1032380066F5C6C567F523EC21F00501D8B027EF80
:1032480019F029EF19F0D5EF19F0000EC36F000E31
:10325800C46F340EC56F430EC66FD5EF19F0F7C5AE
:1032680060F5F8C561F5F9C562F5FAC563F5C3C53A
:1032780064F5C4C565F5C5C566F5C6C567F523EC2F
:1032880021F00501D8B04BEF19F04DEF19F069EFB7
:1032980019F0F7C503F5F8C504F5F9C505F5FAC53C
:1032A80006F5000E076E000E086E800E096E3F0EC2
:1032B8000A6EACEC0FF003C5F7F504C5F8F505C5C3
:1032C800F9F506C5FAF59DEF19F0C3C560F5C4C553
:1032D80061F5C5C562F5C6C563F5F7C564F5F8C5FA
:1032E80065F5F9C566F5FAC567F523EC21F0050122
:1032F800D8B081EF19F083EF19F09DEF19F0F7C5F9
:1033080035F5F8C536F5F9C537F5FAC538F5000EBF
:10331800396E000E3A6E800E3B6E3F0E3C6EA0EC8E
:1033280026F035C5F7F536C5F8F537C5F9F538C5CA
:10333800FAF5F7C547F5F8C548F5F9C549F5FAC5E9
:103348004AF5010E16EC20F03D0E0501B26FEFC5EF
:10335800B3F5B46BFBC5B5F5FCC5B6F5FDC5B7F55A
:10336800FEC5B8F5F7C5B9F5F8C5BAF5F9C5BBF5A1
:10337800FAC5BCF5F3C5BDF5F4C5BEF5F5C5BFF591
:10338800F6C5C0F5B3EC28F0020E0501C86FA00E13
:10339800C76F920EE82EFED7C72FFCD7C82FFAD7D3
:1033A8000000CD0E0501606FCC0E616FCC0E626F10
:1033B8003D0E636FC3C539F5C4C53AF5C5C53BF5C0
:1033C800C6C53CF5F7C535F5F8C536F5F9C537F581
:1033D800FAC538F5A0EC26F035C53DF536C53EF5FD
:1033E80037C53FF538C540F5A6EC21F03DC547F592
:1033F8003EC548F5D8EC27F047C54BF548C54CF510
:10340800000E4CBEFF0E4D6E4E6E010E67EC1EF0A8
:103418004BC564F54CC565F54DC566F54EC567F5F4
:1034280023EC21F00501D8B01CEF1AF01EEF1AF0BA
:1034380026EF1AF0EE51D8B424EF1AF026EF1AF05E
:1034480033EF19F0000EEE6F12000501C6BF31EF21
:103458001AF02FEF1AF03BEF1AF0000EC36F000EB0
:10346800C46F000EC56F000EC66F01EF1BF0000E93
:10347800606F000E616F340E626F430E636FC3C5D9
:1034880064F5C4C565F5C5C566F5C6C567F523EC1D
:1034980021F00501D8B053EF1AF055EF1AF001EFFB
:1034A8001BF0000EC36F000EC46F340EC56F430EC1
:1034B800C66F01EF1BF0FBC560F5FCC561F5FDC5E6
:1034C80062F5FEC563F5C3C564F5C4C565F5C5C534
:1034D80066F5C6C567F523EC21F00501D8B077EF8E
:1034E8001AF079EF1AF095EF1AF0FBC503F5FCC551
:1034F80004F5FDC505F5FEC506F5000E076E000EC0
:10350800086E800E096E3F0E0A6EACEC0FF003C514
:10351800FBF504C5FCF505C5FDF506C5FEF5C9EFC7
:103528001AF0C3C560F5C4C561F5C5C562F5C6C561
:1035380063F5FBC564F5FCC565F5FDC566F5FEC517
:1035480067F523EC21F00501D8B0ADEF1AF0AFEF25
:103558001AF0C9EF1AF0FBC535F5FCC536F5FDC5FF
:1035680037F5FEC538F5000E396E000E3A6E800E3E
:103578003B6E3F0E3C6EA0EC26F035C5FBF536C51C
:10358800FCF537C5FDF538C5FEF5FBC547F5FCC5A7
:1035980048F5FDC549F5FEC54AF5000E16EC20F0C4
:1035A8003D0E0501B26FEFC5B3F5B46BFBC5B5F5BC
:1035B800FCC5B6F5FDC5B7F5FEC5B8F5F7C5B9F54F
:1035C800F8C5BAF5F9C5BBF5FAC5BCF5F3C5BDF53F
:1035D800F4C5BEF5F5C5BFF5F6C5C0F5B3EC28F0E2
:1035E800020E0501C86FA00EC76F920EE82EFED717
:1035F800C72FFCD7C82FFAD70000CD0E0501606F82
:10360800CC0E616FCC0E626F3D0E636FC3C539F58A
:10361800C4C53AF5C5C53BF5C6C53CF5FBC535F58A
:10362800FCC536F5FDC537F5FEC538F5A0EC26F026
:1036380035C53DF536C53EF537C53FF538C540F5C6
:10364800A6EC21F03DC547F53EC548F5D8EC27F076
:1036580047C54BF548C54CF5000E4CBEFF0E4D6EE8
:103668004E6E010E67EC1EF04BC564F54CC565F552
:103678004DC566F54EC567F523EC21F00501D8B0B8
:1036880048EF1BF04AEF1BF052EF1BF0EE51D8B495
:1036980050EF1BF052EF1BF05FEF1AF0000EEE6FC9
:1036A800120005016FBF5DEF1BF05BEF1BF067EFCA
:1036B8001BF0000E6C6F000E6D6F000E6E6F000E2B
:1036C8006F6F0CEF1CF0000E606F000E616FB40E90
:1036D800626F420E636F6CC564F56DC565F56EC5A6
:1036E80066F56FC567F523EC21F00501D8B07FEFCB
:1036F8001BF081EF1BF00CEF1CF0000E6C6F000E3E
:103708006D6FB40E6E6F420E6F6F0CEF1CF0D5C567
:1037180060F5D6C561F5D7C562F5D8C563F56CC542
:1037280064F56DC565F56EC566F56FC567F523EC7F
:1037380021F00501D8B0A3EF1BF0A5EF1BF0C1EFF6
:103748001BF0D5C503F5D6C504F5D7C505F5D8C50D
:1037580006F5000E076E000E086E800E096E3F0E0D
:103768000A6EACEC0FF003C5D5F504C5D6F505C552
:10377800D7F506C5D8F5F5EF1BF06CC560F56DC536
:1037880061F56EC562F56FC563F5D5C564F5D6C537
:1037980065F5D7C566F5D8C567F523EC21F00501B1
:1037A800D8B0D9EF1BF0DBEF1BF0F5EF1BF0D5C558
:1037B80035F5D6C536F5D7C537F5D8C538F5000E71
:1037C800396E000E3A6E800E3B6E3F0E3C6EA0ECDA
:1037D80026F035C5D5F536C5D6F537C5D7F538C57C
:1037E800D8F5D5C547F5D6C548F5D7C549F5D8C5DF
:1037F8004AF5030E16EC20F0020E5A6EA00E596E12
:10380800920EE82EFED7592EFCD75A2EFAD700D0A2
:10381800CD0E0501606FCC0E616FCC0E626F3D0E50
:10382800636F6CC539F56DC53AF56EC53BF56FC567
:103838003CF5D5C535F5D6C536F5D7C537F5D8C560
:1038480038F5A0EC26F035C53DF536C53EF537C54B
:103858003FF538C540F5A6EC21F03DC547F53EC516
:1038680048F5D8EC27F047C54BF548C54CF5000E90
:103878004CBEFF0E4D6E4E6E010E67EC1EF04BC532
:1038880064F54CC565F54DC566F54EC567F523EC81
:1038980021F00501D8B053EF1CF055EF1CF05DEF97
:1038A8001CF0EE51D8B45BEF1CF05DEF1CF08BEF11
:1038B8001BF0000EEE6F120000C62CF501C62DF5A8
:1038C80002C62EF503C62FF51CC52CF51DC52DF512
:1038D8001EC52EF51FC52FF5810E206EFF0E216E19
:1038E8002CC522F52DC523F52EC524F52FC525F5A4
:1038F800180E84EF1CF0D89025322432233222325D
:10390800E82E7FEF1CF0225020242A6E000E212082
:103918002B6E2BBE99EF1CF02B5009E1170E2A5C79
:10392800D8A099EF1CF09BEF1CF0A5EF1CF01CC56C
:103938001CF51DC51DF51EC51EF51FC51FF568EF35
:103948001DF02BBEAAEF1CF0ACEF1CF01CEF1DF015
:103958002AC520F5FF0E216EFF0E226E7F0E236E04
:10396800000E246E2066BBEF1CF0C3EF1CF024345D
:103978002432233222322132202EB6EF1CF021C508
:1039880026F522C527F523C528F524C529F526508F
:103998002C14206E27502D14216E28502E14226EC0
:1039A80029502F14236E2050211022102310D8A440
:1039B800E0EF1CF0E2EF1CF0E4EF1CF09BEF1CF0D2
:1039C8002CC520F52DC521F52EC522F52FC523F5CB
:1039D800200EF4EF1CF0D89023322232213220320C
:1039E800E82EEFEF1CF02050211022102310D8B43D
:1039F80000EF1DF002EF1DF00AEF1DF026502C26F7
:103A080027502D2228502E2229502F22261C206E86
:103A1800271C216E281C226E291C236E20502C1670
:103A280021502D1622502E1623502F1660EF1DF010
:103A38002CC520F52DC521F52EC522F52FC523F55A
:103A4800200E2CEF1DF0D890233222322132203262
:103A5800E82E27EF1DF02050211022102310D8A4A3
:103A680038EF1DF03AEF1DF044EF1DF0000E2C6EFC
:103A7800000E2D6E000E2E6E000E2F6E60EF1DF0E4
:103A8800D8902C34206E2D34216E2E34226E2F3493
:103A9800236E2050211022102310D8B456EF1DF0A9
:103AA80058EF1DF060EF1DF0000E2C6E000E2D6E0D
:103AB800800E2E6EBF0E2F6E2CC51CF52DC51DF564
:103AC8002EC51EF52FC51FF51200000E0501C96F82
:103AD800000ECA6FB40ECB6F420ECC6F000ECD6FC6
:103AE800000ECE6FB40ECF6F420ED06F000ED16FA6
:103AF800000ED26FB40ED36F420ED46F48EC27F08D
:103B080065EC28F027EC27F050EC28F0000E0501B2
:103B1800C96F000ECA6FEA0ECB6F420ECC6F000E53
:103B2800CD6F000ECE6FF00ECF6F420ED06F000E2D
:103B3800D16F000ED26FF00ED36F410ED46F48ECE8
:103B480027F0000E0501C96F000ECA6FEA0ECB6F91
:103B5800420ECC6F000ECD6F000ECE6F020ECF6FEF
:103B6800430ED06F000ED16F000ED26FF00ED36FE0
:103B7800410ED46F48EC27F0000E0501C96F000E06
:103B8800CA6FEA0ECB6F420ECC6F000ECD6F000EDF
:103B9800CE6F030ECF6F430ED06F000ED16F000EA5
:103BA800D26F140ED36F420ED46F48EC27F0000E7C
:103BB8000501C96F000ECA6FEA0ECB6F420ECC6FBB
:103BC800000ECD6F000ECE6F040ECF6F430ED06F78
:103BD800000ED16F000ED26F140ED36F420ED46F49
:103BE80048EC27F079EC28F0000E0501C96F000EAB
:103BF800CA6FEA0ECB6F420ECC6F000ECD6F000E6F
:103C0800CE6F020ECF6F430ED06F000ED16F000E35
:103C1800D26F1C0ED36F420ED46F48EC27F0000E03
:103C28000501C96F000ECA6FEA0ECB6F420ECC6F4A
:103C3800000ECD6F000ECE6F020ECF6F430ED06F09
:103C4800000ED16F000ED26F480ED36F420ED46FA4
:103C580048EC27F0000E0501C96F000ECA6F920EDE
:103C6800CB6F420ECC6F000ECD6F000ECE6FB40E30
:103C7800CF6F420ED06F000ED16F000ED26F020EC2
:103C8800D36F430ED46F48EC27F0000E0501C96FBF
:103C9800000ECA6F920ECB6F420ECC6F000ECD6F26
:103CA800000ECE6F070ECF6F430ED06F000ED16F90
:103CB800000ED26F020ED36F430ED46F48EC27F07C
:103CC80065EC28F01200536E5350D8B46EEF1EF016
:103CD80070EF1EF092EF1EF04EBE77EF1EF075EFFC
:103CE8001EF092EF1EF04BC54FF54CC550F54DC573
:103CF80051F54EC552F54F1E501E511E521E4F2AE9
:103D0800000E5022512252224FC555F550C556F586
:103D180051C557F552C558F59AEF1EF04BC555F5E4
:103D28004CC556F54DC557F54EC558F54B504C107A
:103D38004D104E10D8A4A3EF1EF0A5EF1EF0AFEF64
:103D48001EF0000E4B6E000E4C6E000E4D6E000EF7
:103D58004E6E40EF1FF0960E546EB9EF1EF0542AC7
:103D6800D8905832573256325532000E55144F6E8D
:103D7800000E5614506E000E5714516EFE0E581455
:103D8800526E4F50501051105210D8A4CEEF1EF062
:103D9800D0EF1EF0B3EF1EF0DEEF1EF0542A010E36
:103DA8005526000E562257225822D890583257329C
:103DB80056325532000E55144F6E000E5614506E82
:103DC800000E5714516EFF0E5814526E4F5050107B
:103DD80051105210D8A4F3EF1EF0F5EF1EF0D2EFF9
:103DE8001EF0FDEF1EF05406D8905536563657365D
:103DF800583657BE02EF1FF004EF1FF00CEF1FF00C
:103E0800020E54600AEF1FF00CEF1FF0F7EF1EF0E0
:103E180054B011EF1FF013EF1FF014EF1FF0579E6F
:103E2800D890543254C54FF5506A516A526A4FC5FA
:103E380052F5516A506A4F6A4F50551250505612F7
:103E480051505712525058125350D8B42EEF1FF0F9
:103E580030EF1FF038EF1FF04EBE37EF1FF035EF91
:103E68001FF038EF1FF0588E55C54BF556C54CF569
:103E780057C54DF558C54EF5120050BE46EF1FF018
:103E880049EF1FF0010E4AEF1FF0000E576E0501B3
:103E9800E2BF53EF1FF051EF1FF059EF1FF0000E74
:103EA800566E010E556E5DEF1FF0E1C555F5E2C582
:103EB80056F508C653F509C654F55750D8B467EFF8
:103EC8001FF069EF1FF080EF1FF05306D8A05406CB
:103ED8005750D8A472EF1FF074EF1FF07AEF1FF05D
:103EE800000E526E2B0E516E7EEF1FF0000E526EBA
:103EF8002D0E516E51C557F5000E596E4F0E586E66
:103F0800000E0601616FCDEF1FF05806D8A05906C4
:103F1800120E5824D96E060E5920DA6E4DC503F5D7
:103F28004EC504F54FC505F550C506F50A0E076ED2
:103F3800000E086E000E096E000E0A6EA8EC22F044
:103F480003C547F504C548F5D8EC27F04750300FAE
:103F5800DF6E5506D8A056065306D8A054064DC5A0
:103F680003F54EC504F54FC505F550C506F50A0E0F
:103F7800076E000E086E000E096E000E0A6E9DECAC
:103F880020F003C54DF504C54EF505C54FF506C52A
:103F980050F559BED8EF1FF0595008E15804D8A081
:103FA800D8EF1FF0DAEF1FF0F2EF1FF04D504E1070
:103FB8004F105010D8A4E3EF1FF0E5EF1FF089EF82
:103FC8001FF056BEF2EF1FF0565006E15504D8B068
:103FD800F0EF1FF0F2EF1FF089EF1FF05750D8B441
:103FE800F8EF1FF0FAEF1FF005EF20F05806D8A001
:103FF8005906120E5824D96E060E5920DA6E57C586
:10400800DFF44BC515F54CC516F5120E5824176E7E
:10401800060E5920186E53C519F554C51AF54CECFF
:1040280025F012004B6E000E206EFF0E216E7F0EE3
:10403800226E470E236E000E076E000E086E340EB9
:10404800096E430E0A6E47C503F548C504F549C510
:1040580005F54AC506F504EC16F003C51CF504C5BC
:104068001DF505C51EF506C51FF50CEC12F01CC59F
:104078003DF51DC53EF51EC53FF51FC540F5A6EC2F
:1040880021F03DC54CF53EC54DF581EF20F04CC5FE
:1040980003F54DC504F547EC29F0A6EC29F09CEF93
:1040A80020F04CC503F54DC504F542EC29F051EF5D
:1040B80020F04CC503F54DC504F53DEC29F0A4EC02
:1040C80029F09CEF20F04CC503F54DC504F538ECFC
:1040D80029F063EF20F04CC503F54DC504F533EC2A
:1040E80029F0A2EC29F09CEF20F04CC503F54DC552
:1040F80004F52EEC29F075EF20F04B50000AD8B4E7
:104108004BEF20F0010AD8B455EF20F0030AD8B4D9
:104118005DEF20F0010AD8B467EF20F0070AD8B4A1
:104128006FEF20F0010AD8B479EF20F09CEF20F06F
:104138001200000E0C6E0ABEA6EF20F0A4EF20F0CD
:10414800B0EF20F00A1E091E081E076C000E082298
:1041580009220A22010E0C6E06BEB7EF20F0B5EF59
:1041680020F0C1EF20F0061E051E041E036C000E91
:10417800042205220622010E0C1A000E0D6E000EF6
:104188000E6E000E0F6E000E106E0750081009100C
:104198000A10D8B4D2EF20F0D4EF20F00AEF21F0C3
:1041A800010E0B6EDEEF20F0D89007360836093680
:1041B8000A360B2A0AAEE3EF20F0E5EF20F0D8EF3D
:1041C80020F0D8900D360E360F3610360750035CA7
:1041D80008500458095005580A500658D8A0F7EF57
:1041E80020F0F9EF20F002EF21F00750035E0850AD
:1041F800045A0950055A0A50065A0D80D8900A32B6
:104208000932083207320B2EE5EF20F00C50D8B4F3
:1042180010EF21F012EF21F01AEF21F0101E0F1EFF
:104228000E1E0D6C000E0E220F2210220DC503F576
:104238000EC504F50FC505F510C506F51200000EEC
:1042480005016015686F000E6115696F800E6215B3
:104258006A6F7F0E63156B6F685169116A116B1174
:10426800D8A439EF21F03BEF21F043EF21F0000E05
:10427800606F000E616F000E626F000E636F000EBC
:104288006415686F000E6515696F800E66156A6F94
:104298007F0E67156B6F685169116A116B11D8A48D
:1042A80058EF21F05AEF21F062EF21F0000E646F11
:1042B800000E656F000E666F000E676F63AF67EFE5
:1042C80021F069EF21F072EF21F0606D611FD8B025
:1042D800612B621FD8B0622B800E635767AF77EFF0
:1042E80021F079EF21F082EF21F0646D651FD8B0DD
:1042F800652B661FD8B0662B800E6757000E601BB3
:10430800000E611B000E621B800E631B000E641BF7
:10431800000E651B000E661B800E671B6451605DF6
:10432800655161596651625967516359D8B09FEF19
:1043380021F0A1EF21F0A4EF21F0D890A5EF21F012
:10434800D88012003F344034466E4650D8A4AFEFB0
:1043580021F0B1EF21F0BBEF21F0000E3D6E000E11
:104368003E6E000E3F6E000E406E28EF22F03DC5F7
:1043780041F53EC542F53FC543F540C544F5200E1D
:10438800CBEF21F0D8904432433242324132E82E0A
:10439800C6EF21F04150456E3F8EFF0E3D16FF0ED1
:1043A8003E16FF0E3F16000E4016960E465E46BE9F
:1043B800E2EF21F0E0EF21F0F8EF21F04650800A1B
:1043C800970FD8B0EAEF21F0ECEF21F0EEEF21F0F3
:1043D800B1EF21F0D89040323F323E323D32463E76
:1043E800EEEF21F010EF22F01F0E4664FEEF21F0F1
:1043F80000EF22F008EF22F0B1EF21F0D8903D361F
:104408003E363F36403646064650D8A40EEF22F0D8
:1044180010EF22F002EF22F04550D8B416EF22F048
:1044280018EF22F020EF22F0401E3F1E3E1E3D6C8A
:10443800000E3E223F2240223DC53DF53EC53EF5D9
:104448003FC53FF540C540F5120004C60DF505C649
:104458000EF506C60FF507C610F503C50DF504C51C
:104468000EF505C50FF506C510F50DC507F50EC502
:1044780008F50FC509F510C50AF5180E49EF22F021
:10448800D8900A32093208320732E82E44EF22F077
:1044980007500B6E0C6A0B500C10D8A456EF22F084
:1044A80058EF22F078EF22F0D8900D34076E0E34D2
:1044B800086E0F34096E10340A6E07500810091080
:1044C8000A10D8A46AEF22F06CEF22F072EF22F003
:1044D800000E046E020E036EA7EF22F0000E046EAB
:1044E800030E036EA7EF22F00B280C10D8A47FEF61
:1044F80022F081EF22F0A3EF22F00DC507F50EC5DB
:1045080008F50FC509F510C50AF5090ED890073644
:10451800083609360A36E82E8AEF22F007500810C6
:1045280009100A10D8B49BEF22F09EEF22F0010E7A
:104538009FEF22F0000E036E046AA7EF22F0000E30
:10454800046E040E036E1200000E0C6E06BEB1EF70
:1045580022F0AFEF22F0BBEF22F0061E051E041E6C
:10456800036C000E042205220622010E0C6E0ABE00
:10457800C2EF22F0C0EF22F0CAEF22F00A1E091E95
:10458800081E076C000E082209220A22075008108C
:1045980009100A10D8B4D3EF22F0D5EF22F005EFB6
:1045A80023F0010E0B6EDFEF22F0D89007360836A5
:1045B80009360A360B2A0AAEE4EF22F0E6EF22F0BB
:1045C800D9EF22F00750035C0850045809500558E9
:1045D8000A500658D8A0F3EF22F0F5EF22F0FDEFCD
:1045E80022F00750035E0850045A0950055A0A5031
:1045F800065AD8900A320932083207320B2EE6EFF3
:1046080022F00C50D8B40BEF23F00DEF23F015EF88
:1046180023F0061E051E041E036C000E042205224C
:10462800062203C503F504C504F505C505F506C549
:1046380006F5120007500810D8B425EF23F027EF2D
:1046480023F030EF23F007500810D8A42EEF23F002
:1046580030EF23F035EF23F00550D6EC28F082EF49
:1046680023F020EE0AF00750D9260850DA22DE504F
:10467800DE10D8B442EF23F044EF23F05FEF23F0CD
:1046880020EE0AF00750D9260850DA2210EE03F07F
:104698000750E1260850E222DE50E65CE650800A28
:1046A8000D6EDE50800A0D58D8B05DEF23F05FEF35
:1046B80023F082EF23F020EE03F00750D9260850AC
:1046C800DA22DEC409F5DDC40AF507C5D9F408C540
:1046D800DAF4DEC40BF5DDC40CF509500B24D96EF1
:1046E8000A500C20DA6E05C5DFF420EE03F00750FF
:1046F800D9260850DA22DE2A000EDD221200000E2A
:10470800116E000E106E09C5D9F40AC5DAF4DFC4BB
:10471800F6F4150EF76EF86A0800F5502A0AD8A4C0
:1047280098EF23F09AEF23F0CAEF23F009C5D9F4E4
:104738000AC5DAF4DF2A0BC5D9F40CC5DAF4DFC4EC
:104748000DF5020EDE26DFC40EF5000EDD220DC5C6
:10475800D9F40EC5DAF4DEC410F5DDC411F5DFEFC7
:1047680023F010C503F511C504F5000E066E0A0EF8
:10477800056E8DEC28F00F500324106E000E0420F7
:10478800116E09C5D9F40AC5DAF4DF2A09C5D9F4C6
:104798000AC5DAF4DFC4F6F4150EF76EF86A0800F5
:1047A800F550D00F0F6E090E0F64DDEF23F0DFEF29
:1047B80023F0B5EF23F010C509F511C50AF512006D
:1047C800000E03140B6E000E04140C6E800E0514FC
:1047D8000D6E7F0E06140E6E0B500C100D100E1081
:1047E800D8A4F9EF23F0FBEF23F003EF24F0000E39
:1047F800036E000E046E000E056E000E066E000EAF
:1048080007140B6E000E08140C6E800E09140D6E42
:104818007F0E0A140E6E0B500C100D100E10D8A43B
:1048280018EF24F01AEF24F022EF24F0000E076EA0
:10483800000E086E000E096E000E0A6E075003186F
:104848000FE1085004180CE10950051809E10A5055
:104858000618D8B432EF24F034EF24F037EF24F000
:10486800D89038EF24F0D8801200000EBE6E000EEB
:10487800BF6E000EC06E3F0EC66E200EC76E090ECC
:10488800C86E370E0401006F000E086F080E106F17
:10489800000E016F000E096F010E116F000E026FFE
:1048A800000E0A6F000E126F370E036FF00E0B6FBB
:1048B80013693F0E046FF00E0C6F1469000E0201AD
:1048C800876F000E866F0D0E726F100E3E6F100E02
:1048D800106F0E0E176F0F0E186F0C0E166F0D0E51
:1048E800156F0A0E0D6F0B0E0F6F000E0401056F8A
:1048F800000E066F000E076F000E0D6F000E0E6F94
:10490800000E0F6F000E156F000E166F000E176F5A
:104918001200C082ABEF24F06D0E0501EF6F06ECBC
:1049280027F0C6EF24F0610E0501EF6F69EC1DF06A
:10493800C6EF24F0750E0501EF6FE5EC26F0C6EF23
:1049480024F0000E0B6F000E0A6FC6EF24F00AC6A3
:104958008AF60BC68BF606018B51000AD8B4B7EF5E
:1049680024F0A5EF24F08A51000AD8B490EF24F07F
:10497800010AD8B497EF24F0030AD8B49EEF24F0C4
:10498800A5EF24F0C092090E06018B6F1E0E8A6FE8
:10499800E40EE82EFED78A2FFCD78B2FFAD700001B
:1049A8001200000E0201A16F000EA26F000EA36F8D
:1049B800000EA46F000EA56F000EA66F000EA76F65
:1049C800000EA86F000EA96F000EAA6FB00EAB6F95
:1049D800800EAC6F080EAD6F820EAE6F060EAF6F15
:1049E8002E0EB06F000EB16F800EB26F000EB36F57
:1049F800000E036E000E046E01EC29F0000E036E2B
:104A0800000E046EF3EC28F0000E036E000E046E28
:104A1800E5EC28F0000E0601116F000E106F120071
:104A2800520EF66E520EF76E000EF86E01EE80F220
:104A380010EE0AF00900F5C4EEF4E550E150FAE191
:104A48003A0EF66E520EF76E000EF86E01EEF3F1A6
:104A580010EE0CF00900F5C4EEF4E550E150FAE16F
:104A680001EE00F26C0EEE6AE806FDE101EED5F10A
:104A78001E0EEE6AE806FDE15D6A5C6A0401080E36
:104A88005D6F000E5E6F000E5F6F000185EF27F00F
:104A98001ABE53EF25F051EF25F057EF25F0000E21
:104AA8001A6E000E196E000E1D6E000E1C6E69EF58
:104AB80025F0000E066E200E056E15C507F516C505
:104AC80008F51EEC23F01C4A1D2A19501C5C1D50C9
:104AD800800A1B6E1A50800A1B58D8A076EF25F062
:104AE80078EF25F05DEF25F017C50EF518C50FF521
:104AF80015C510F516C511F5C3EC26F01200000E09
:104B08007E6E020E7F6E000E806E8168F90E826ED8
:104B1800130E836E000E846E000E856E000E866E78
:104B2800000E886EC00E896E120E8A6EC00E8B6ED5
:104B3800120E8C6EBA9CBA9E85908592AF9EAF9CE1
:104B4800000E036E000E046E56EC29F0000E036E84
:104B5800000E046E51EC29F0000E036E000E046E78
:104B68005BEC29F0800E876E1200000E6F6E020E4D
:104B7800706E000E716E7268F90E736E130E746E9D
:104B8800000E756E000E766E000E776E000E796E52
:104B9800C00E7A6E120E7B6EC00E7C6E120E7D6E8B
:104BA800B89CB89E76907692AD9EAD9C000E036E32
:104BB800000E046E65EC29F0000E036E000E046E04
:104BC80060EC29F0000E036E000E046E6AEC29F00A
:104BD800800E786E1200000E606E020E616E000E7E
:104BE800626E6368F90E646E130E656E000E666E73
:104BF800000E676E000E686E000E6A6E400E6B6ED9
:104C0800060E6C6E400E6D6E1F0E6E6EB79CB79ED4
:104C180067906792AC9EAC9C000E036E000E046E0B
:104C280074EC29F0000E036E000E046E6FEC29F090
:104C3800000E036E000E046E79EC29F0800E696E8A
:104C4800120006BE2AEF26F02CEF26F036EF26F0EB
:104C580003C503F504C504F505C505F506C506F540
:104C68004FEF26F003C507F504C508F505C509F596
:104C780006C50AF5071E081E091E0A1E072A000E89
:104C8800082209220A2207C503F508C504F509C543
:104C980005F50AC506F51200AFC55BF563EF26F00A
:104CA800ADC59FF5AEC5A0F55B0E0501A16F050E5C
:104CB800A26FB0C5A3F5B1C5A4F521EC14F05BC58E
:104CC800F6F4150EF76EF86A0800F5500009D8A436
:104CD80070EF26F072EF26F054EF26F0000E050173
:104CE800AE6F000EAD6F120005C50BF506C50CF5CD
:104CF80003C509F504C50AF592EF26F00BC5D9F4EA
:104D08000CC5DAF4DF500D6E0B4A0C2A09C5D9F42C
:104D18000AC5DAF40DC5DFF4094A0A2A0706D8A03D
:104D28000806072806E10828D8A49DEF26F09FEF7B
:104D380026F082EF26F01200000E391A000E3A1AF9
:104D4800000E3B1A800E3C1A35C503F536C504F52E
:104D580037C505F538C506F539C507F53AC508F567
:104D68003BC509F53CC50AF5ACEC0FF003C535F5B4
:104D780004C536F505C537F506C538F51200000E29
:104D8800146E000E136ED4EF26F012C505F5066AF0
:104D980010C507F511C508F51EEC23F0134A142AAF
:104DA80013500E24D96E14500F20DA6EDF50126E95
:104DB8001250D8A4E2EF26F0E4EF26F0C9EF26F06F
:104DC80012003D0E0501B26FEFC5B3F5B46BFBC51C
:104DD800B5F5FCC5B6F5FDC5B7F5FEC5B8F5F7C51B
:104DE800B9F5F8C5BAF5F9C5BBF5FAC5BCF5F3C50B
:104DF800BDF5F4C5BEF5F5C5BFF5F6C5C0F5B3EC10
:104E080028F012003D0E0501B26FEFC5B3F5B46B83
:104E1800FBC5B5F5FCC5B6F5FDC5B7F5FEC5B8F5D6
:104E2800F7C5B9F5F8C5BAF5F9C5BBF5FAC5BCF5C6
:104E3800F3C5BDF5F4C5BEF5F5C5BFF5F6C5C0F5B6
:104E4800B3EC28F012000501EE51D8A42EEF27F09C
:104E580030EF27F047EF27F0000E476E000E486E40
:104E6800000E496E000E4A6E040E16EC20F0290E54
:104E78004F6E960E4E6E7F0EE82EFED74E2EFCD746
:104E88004F2EFAD700001200C9C5C3F5CAC5C4F52C
:104E9800CBC5C5F5CCC5C6F529EC1AF0CDC5C3F50B
:104EA800CEC5C4F5CFC5C5F5D0C5C6F5FDEC18F01F
:104EB800D1C5C3F5D2C5C4F5D3C5C5F5D4C5C6F5A6
:104EC800D1EC17F0120003C507F504C508F5052A4B
:104ED8000504066E06C5F6F4150EF76EF86A07C5E2
:104EE800D9F408C5DAF4074A082A0800F5C4DFF43B
:104EF800DF50D8A482EF27F084EF27F06BEF27F07C
:104F08001200A0EC28F03E0E036E530E046E88ECDF
:104F180029F0D68EEFEC25F0B9EC25F083EC25F0DE
:104F2800D5EC24F0000E06010B6F010E0A6F8DEC14
:104F380024F09BEF27F00DEF00F00350041005104C
:104F48000610D8B4AAEF27F0ACEF27F0B4EF27F09B
:104F5800000E031A000E041A000E051A800E061A17
:104F680003C503F504C504F505C505F506C506F52D
:104F78001200D69AB490D680500E036E530E046E6B
:104F880088EC29F0A980B990D682000E036E000E35
:104F9800046E83EC29F0BD90D684000E036E000EDB
:104FA800046E7EEC29F0120048BEDDEF27F0DFEF3B
:104FB80027F0E5EF27F047C547F548C548F5F1EF75
:104FC80027F047C549F548C54AF5491E4A1E494ACA
:104FD8004A2A49C547F54AC548F51200000E03019B
:104FE800196F000E186F780E1B6F1951056E185146
:104FF8000501E56F05C5E6F5000E036E000E046EAB
:105008004CEC29F0B69E900E03011A6F1200FAC4F8
:1050180001F5FBC402F5A9A014EF28F016EF28F05B
:105028001FEF28F0B4A01BEF28F01DEF28F01FEFAA
:1050380028F091EC29F002C5FBF401C5FAF411003F
:105048000501EB51EC11D8B42CEF28F02EEF28F025
:105058003AEF28F002D83AEF28F00500FA6EEB5143
:10506800FD6EEC51FE6EFF6AFA5012001200000E3F
:10507800036E0201B0AB43EF28F045EF28F04EEF86
:1050880028F0ABAB4AEF28F04CEF28F04EEF28F0B1
:10509800010E036E035012000501EE51D8A457EF1C
:1050A80028F059EF28F064EF28F0000E476E000E44
:1050B800486EB40E496E420E4A6E040E16EC20F08D
:1050C80012000501EE51D8A46CEF28F06EEF28F01D
:1050D80078EF28F0000E6C6F000E6D6F200E6E6F6B
:1050E800420E6F6F55EC1BF012000501EE51D8A46B
:1050F80080EF28F082EF28F08CEF28F0000E6C6F1C
:10510800000E6D6F200E6E6F410E6F6F55EC1BF029
:10511800120003500502F3C407F5F4C408F5035060
:105128000602F350082604500502F350082607C566
:1051380003F508C504F512000FEC29F039EC24F04A
:10514800EFEC25F0B9EC25F083EC25F0F2EC27F034
:10515800D5EC24F0C5EC28F0BDEC27F01200B30E16
:105168000501C16F050EC26F000EAD6F000EAE6F68
:10517800B2C5AFF5C10EB06F050EB16F50EC26F099
:10518800120099EC29F0000E046E000E036E23EC59
:1051980029F0000E036E000E046E4CEC29F09CEC16
:1051A80029F01200046E3BEC28F00009D8B4DFEFB8
:1051B80028F0E1EF28F0D7EF28F004508DEC29F023
:1051C800120003500410D8B4ECEF28F0EEEF28F0EA
:1051D800F2EF28F003C50CF604C50DF612000350D3
:1051E8000410D8B4FAEF28F0FCEF28F000EF29F00B
:1051F80003C50EF604C50FF6120003500410D8B408
:1052080008EF29F00AEF29F00EEF29F003C5E3F5BE
:1052180004C5E4F51200600E0001AD6F000EAF6F1B
:10522800000EB36F080EB16F000EB06F000EAC6FBA
:1052380012000000B4420000B4420000B44204501E
:105248000301196F03C518F31200000000000000E5
:105258000000000003C58BF404508C6E120003C5D7
:1052680089F404508A6E120003C57CF404507D6EE4
:10527800120003C57AF404507B6E120003C56DF466
:1052880004506E6E120003C56BF404506C6E12006D
:1052980003C56CF604C56DF6120003C57CF604C59B
:1052A8007DF6120003C57EF604C57FF6120003C51D
:1052B8007AF604C57BF6120003C576F604C577F6C0
:1052C800120003C578F604C579F6120003C574F612
:1052D80004C575F6120003C570F604C571F6120010
:1052E80003C572F604C573F6120003C56EF604C54D
:1052F8006FF6120003C5E7F504C5E8F5120003C50B
:10530800E9F504C5EAF5120003C5EBF504C5ECF5AB
:105318001200036E03C5A3F21200B49024EC28F027
:105328001200010E0501EE6F120003011A9F120010
:1053380003011A8F120095EC29F0120087841200DD
:0A534800788412006984120012003C
:020000040030CA
:090000008CFFF7FF9FFFFFFFFFDB
:00000001FF
